:020000040000FA
:040000003EEF00F0DF
:020004000000FA
:040008008A9213D0F5
:08001800D8CF01F0E8CF00F0A1
:10002000E0CF02F002C0E0FF00C0E8FF01C0D8FF4F
:100030001000D8CF01F0E8CF00F0E0CF02F09EBE74
:1000400001D014D082B436EF00F0550E8C6EA8ECBF
:1000500001F083CF06F08A864C0E06505AEC02F06F
:1000600086515AEC02F0D5EC01F09E9E02C0E0FFF2
:1000700000C0E8FF01C0D8FF8A82110082EC00F0C6
:100080008A98939893848A8293929484C2EC01F024
:1000900022EC01F0898A929A898092908A969396AE
:1000A0003FEC01F086EC01F0B6EC00F0000EF86ECB
:1000B000050EF76E060EF66E800EA66E866B876BCB
:1000C000090000000000F5509FEC00F0863FF8D7D3
:1000D000872B8751040AF4E1BFEC00F0CBEC00F071
:1000E000D5EC00F0A8EC01F086515AEC02F0D5EC0A
:1000F00001F08980FF0EEDEC00F08990FF0EEDEC31
:1001000000F0F0D7C26A0F0EC16EBD6ABA6A8A806B
:1001100093901200076A000E8AEC01F08986B5EC14
:1001200001F0010E44EC01F0898489928994000069
:1001300073EC01F0076E8984898207501200076E04
:10014000000E8AEC01F0000E44EC01F0B5EC01F079
:10015000075059EC01F089848992899600008986BC
:1001600089821200898489828986120089929292FA
:100170008994929489969296B2EC00F01200928241
:1001800092849286010E8AEC01F0010E44EC01F09B
:10019000B2EC00F012008A989398320EEDEC00F069
:1001A0008A8881A4FED700001200D09E9680968295
:1001B0009684968895689E9E9D8EF28CF28E8A908B
:0401C0008A8212001D
:0C01C400806F0000000000000000000040
:1001D00000000000802FF7D71200816F640EE2EC60
:1001E00000F0640EE2EC00F0640EE2EC00F0640E4D
:1001F000E2EC00F0812FEEEF00F01200899A400E41
:100200002EEC01F0000E2EEC01F0000E2EEC01F0B1
:10021000898A1200899A400E2EEC01F082512EEC50
:1002200001F083512EEC01F0898A1200899A410E67
:100230002EEC01F082512EEC01F000502EEC01F07A
:10024000898A12009488949A9496C66AC96A9E967E
:10025000C78CC79EC688C698C68A1200846FC69E81
:100260008451C96E9EA6FED79E96C95012009E96D6
:10027000C950000EC96E9EA6FED7C95012009698AE
:10028000010E44EC01F01200D894010A09E19580B6
:100290009582958495869588958A958C958E120081
:1002A00095909592959495969598959A959C959EEE
:1002B0001200856F8C908C928C948C968C988C9A72
:1002C0008C9C8C9E85B18C8085B38C8285B58C840A
:1002D00085B78C8685B98C8885BB8C8A85BD8C8CCE
:1002E00085BF8C8E1200856B83B0858183B2858338
:1002F00083B4858583B6858783B8858983BA858BE2
:1003000083BC858D83BE858F85511200010E8AECDA
:1003100001F01200D894010AD8A40DD0000E826F0B
:10032000FF0E836F0AEC01F0010E826FFF0E836FE8
:100330000AEC01F01200000E826F000E836F0AECCF
:1003400001F0010E826F000E836F0AEC01F01200C3
:10035000866B876B120E826F16EC01F0866F130EA0
:10036000826F16EC01F0876F1200120E826F8651B9
:10037000836F0AEC01F0130E826F8751836F0AECD2
:1003800001F01200949C948EAD6AAE6A810EAF6E3D
:10039000240EAC6EAC98AB8E12009EA8FED7AD6E4C
:1003A00012009EAAFED7AE5012000D0ECDEC01F049
:1003B0000A0ECDEC01F01200F9262D0C2D0C2D0C9F
:1003C0002D0C2D0C2D0C2D0C2D0C2D0C2D0C2D0C65
:1003D0002D0C2D0C2D0C2D0C2D0C2D0C2D0C2D0C55
:1003E0002D0C2D0C2D0C2D0C2D0C2D0C2D0C2D0C45
:1003F0002D0C2D0C2D0C2D0C2D0C2D0C2D0C2D0C35
:100400002D0C2D0C2D0C2D0C2D0C2D0C2D0C2D0C24
:100410000D0C0A0C540C650C730C740C200C4D0C58
:10042000650C730C730C610C670C650C0D0C0A0CDD
:100430002D0C2D0C2D0C2D0C2D0C2D0C2D0C2D0CF4
:100440002D0C2D0C2D0C2D0C2D0C2D0C2D0C2D0CE4
:100450002D0C2D0C2D0C2D0C2D0C2D0C2D0C2D0CD4
:100460002D0C2D0C2D0C2D0C2D0C2D0C2D0C2D0CC4
:100470002D0C2D0C2D0C2D0C2D0C2D0C2D0C2D0CB4
:100480002D0C2D0C2D0C000C886F88A755EF02F059
:10049000080AD8B455EF02F000008851090AD8B410
:1004A00055EF02F00000070E88278851300FCDEC81
:1004B00001F01200896F89390F0B44EC02F0895169
:1004C0000F0B44EC02F012008A6F080E8B6F8096BF
:1004D000370EE2EC00F08A43D8A071EF02F074EF1F
:1004E00002F0809675EF02F08086370EE2EC00F0A5
:1004F0008B2F6BEF02F08086370EE2EC00F01200DB
:10050000808692961200F33E05DB00D301000000C6
:10051000000000C301000000000000000000000017
:1005200000000000000000000000000000000000CB
:1005300000000000000000000000000000000000BB
:1005400000000000000000000000000000000000AB
:10055000000000000000000000000000000000009B
:10056000000000000000000000000000000000008B
:10057000000000000000000000000000000000007B
:10058000000000000000000000000000000000006B
:10059000000000000000000000000000000000005B
:1005A000000000000000000000000000000000004B
:1005B000000000000000000000000000000000003B
:1005C000000000000000000000000000000000002B
:1005D000000000000000000000000000000000001B
:1005E000000000000000000000000000000000000B
:1005F00000000000000000000000000000000000FB
:1006000000000000001100000000000000000000D9
:1006100000000000000000000000000000000000DA
:1006200000000000000000000000000000000000CA
:1006300000000000000000000000000000000000BA
:1006400000000000000000000000000000000000AA
:10065000000000000000000000000000000000009A
:10066000000000000000000000000000000000008A
:10067000000000000000000000000000000000007A
:100680000000000000220000000000000000000048
:10069000000000000000000000000000000000005A
:1006A000000000000000000000000000000000004A
:1006B000000000000000000000000000000000003A
:1006C000000000000000000000000000000000002A
:1006D000000000000000000000000000000000001A
:1006E000000000000000000000000000000000000A
:1006F00000000000000000000000000000000000FA
:1007000000000000003300000000000000000000B6
:1007100000000000000000000000000000000000D9
:1007200000000000000000000000000000000000C9
:1007300000000000000000000000000000000000B9
:1007400000000000000000000000000000000000A9
:100750000000000000000000000000000000000099
:100760000000000000000000000000000000000089
:100770000000000000000000000000000000000079
:100780000000000000440000000000000000000025
:100790000000000000000000000000000000000059
:1007A0000000000000000000000000000000000049
:1007B0000000000000000000000000000000000039
:1007C0000000000000000000000000000000000029
:1007D0000000000000000000000000000000000019
:1007E0000000000000000000000000000000000009
:1007F00000000000000000000000000000000000F9
:100800000000000000550000000000000000000093
:1008100000000000000000000000000000000000D8
:1008200000000000000000000000000000000000C8
:1008300000000000000000000000000000000000B8
:1008400000000000000000000000000000000000A8
:100850000000000000000000000000000000000098
:100860000000000000000000000000000000000088
:100870000000000000000000000000000000000078
:100880000000000000660000000000000000000002
:100890000000000000000000000000000000000058
:1008A0000000000000000000000000000000000048
:1008B0000000000000000000000000000000000038
:1008C0000000000000000000000000000000000028
:1008D0000000000000000000000000000000000018
:1008E0000000000000000000000000000000000008
:1008F00000000000000000000000000000000000F8
:060900000000000000777A
:020000040030CA
:0100010026D8
:010002000FEE
:010003000EEE
:0100050001F9
:010006008178
:010008000FE8
:01000900C036
:01000A000FE6
:01000B00E014
:01000C000FE4
:00000001FF
