:020000040000FA
:040000005AEF00F0C3
:020004000000FA
:08000800916B16EC02F011D01F
:08001800D8CF01F0E8CF00F0A1
:10002000E0CF02F002C0E0FF00C0E8FF01C0D8FF4F
:100030001000D8CF01F0E8CF00F0E0CF02F09EBE74
:1000400001D02BD08A8696AE12D008B424D008A056
:1000500022D0EA6A840EE96E8251E9268350EF6E5F
:10006000822B969A8251020AD8B4088414D096BE84
:1000700012D008B410D008A20ED08351000A08E0B4
:10008000880EE96E83078351E926EFCF8CFF03D0FA
:100090000892088000D0969A9E9E02C0E0FF00C0A1
:1000A000E8FF01C0D8FF000E08A4800E916F16EC87
:1000B00002F011007FEC00F08A98939893848A8272
:1000C0009392948441EC02F083EC01F0898A929A35
:1000D000899092908A969396A0EC01F0E7EC01F05B
:1000E000E9EC00F02BEC01F0F2EC00F0FEEC00F09B
:1000F00010EC01F0088008B489EC00F0FCD7C26A6B
:100100000F0EC16EBD6ABA6A8A909390110ED56EB9
:1001100012008980F29E08940890826B8451D9EC79
:1001200002F08451020A14E08451030A0CE0855164
:100130004CEC02F054EC02F0846B856B866B876BA1
:10014000000E836F09D0010E836FD650886F04D0E4
:10015000000E836F8551D66E120E8C6E0882F28E61
:10016000800E916F16EC02F012000892836B886B80
:10017000896B8A6B8B6B08801200076A000EEBECB0
:1001800001F0898616EC02F0010EA5EC01F08984DD
:10019000899289940000D4EC01F0076E89848982E9
:1001A00007501200076E000EEBEC01F0000EA5ECFC
:1001B00001F016EC02F00750BAEC01F08984899244
:1001C00089960000898689821200898489828986BD
:1001D0001200899292928994929489969296E5EC73
:1001E00000F01200928292849286010EEBEC01F0F4
:1001F000010EA5EC01F0E5EC00F012008A9893984E
:10020000320E4EEC01F08A8881A4FED70000120065
:100210008A98939812008A8881A4FED70000120061
:10022000D09E968096829684968895689E9E9D8E96
:10023000F28CF28E8A809382000E23EC02F0836BA4
:10024000826B086A886B896B8A6B8B6B846B856B9E
:10025000866B876B1200000EF86E060EF76E040EAA
:10026000F66E800EA66E916B926B09000000000086
:10027000F550D2EC00F0913FF8D7922B9251040A3E
:06028000F4E1120012007F
:0A028600806F00000000000000007F
:10029000000000000000802FF7D71200816F640E6D
:1002A00043EC01F0640E43EC01F0640E43EC01F00A
:1002B000640E43EC01F0812F4FEF01F01200899A98
:1002C000400E8FEC01F0000E8FEC01F0000E8FEC71
:1002D00001F0898A1200899A400E8FEC01F08D514D
:1002E0008FEC01F08E518FEC01F0898A1200899A0F
:1002F000410E8FEC01F08D518FEC01F000508FEC2E
:1003000001F0898A12009488949A9496C66AC96A00
:100310009E96C78CC79EC688C698C68A12008F6FE5
:10032000C69E8F51C96E9EA6FED79E96C9501200DA
:100330009E96C950000EC96E9EA6FED7C9501200E7
:100340009698010EA5EC01F01200D894010A09E17B
:1003500095809582958495869588958A958C958EBD
:10036000120095909592959495969598959A959C4E
:10037000959E1200906F8C908C928C948C968C9899
:100380008C9A8C9C8C9E90B18C8090B38C8290B512
:100390008C8490B78C8690B98C8890BB8C8A90BDE9
:1003A0008C8C90BF8C8E1200906B83B0908183B246
:1003B000908383B4908583B6908783B8908983BAFD
:1003C000908B83BC908D83BE908F90511200010E54
:1003D000EBEC01F01200D894010AD8A40DD0000E65
:1003E0008D6FFF0E8E6F6BEC01F0010E8D6FFF0EA7
:1003F0008E6F6BEC01F01200000E8D6F000E8E6F91
:100400006BEC01F0010E8D6F000E8E6F6BEC01F046
:100410001200916B926B120E8D6F77EC01F0916F61
:10042000130E8D6F77EC01F0926F1200120E8D6F2C
:1004300091518E6F6BEC01F0130E8D6F92518E6F98
:100440006BEC01F01200D894010AD8A4D5D7000EA5
:100450008D6FFF0E8E6F6BEC01F0010E8D6FFF0E36
:100460008E6F6BEC01F01200000E8D6F000E8E6F20
:100470006BEC01F0010E8D6FFF0E8E6F6BEC01F0D7
:100480001200949C948EAD6AAE6A810EAF6E240EFB
:10049000AC6EAC98AB8E12009EA8FED7AD6E12006B
:1004A0009EAAFED7AE5012000D0E4CEC02F00A0EC2
:1004B0004CEC02F01200F9262D0C2D0C2D0C2D0CFD
:1004C0002D0C2D0C2D0C2D0C2D0C2D0C2D0C2D0C64
:1004D0002D0C2D0C2D0C2D0C2D0C2D0C2D0C2D0C54
:1004E0002D0C2D0C2D0C2D0C2D0C2D0C2D0C2D0C44
:1004F0002D0C2D0C2D0C2D0C2D0C2D0C2D0C2D0C34
:100500002D0C2D0C2D0C2D0C2D0C2D0C2D0C0D0C43
:100510000A0C540C650C730C740C200C4D0C650CFF
:10052000730C730C610C670C650C0D0C0A0C2D0C14
:100530002D0C2D0C2D0C2D0C2D0C2D0C2D0C2D0CF3
:100540002D0C2D0C2D0C2D0C2D0C2D0C2D0C2D0CE3
:100550002D0C2D0C2D0C2D0C2D0C2D0C2D0C2D0CD3
:100560002D0C2D0C2D0C2D0C2D0C2D0C2D0C2D0CC3
:100570002D0C2D0C2D0C2D0C2D0C2D0C2D0C2D0CB3
:100580002D0C2D0C000C936F93A7D4EF02F0080AEA
:10059000D8B4D4EF02F000009351090AD8B4D4EFD4
:1005A00002F00000070E93279351300F4CEC02F03D
:1005B0001200946F94390F0BC3EC02F094510F0B9F
:1005C000C3EC02F01200956F080E966F8096370EFE
:1005D00043EC01F09543D8A0F0EF02F0F3EF02F006
:1005E0008096F4EF02F08086370E43EC01F0962FF0
:1005F000EAEF02F08086370E43EC01F012008086AD
:1006000092961200F33E41D300CD1F003E58D30016
:10061000CD1F00DB00D301CD1900C3010000000095
:100620000000C9DB03CB7FCA1F00C9000000000027
:1006300000000000000000000000000000000000BA
:1006400000000000000000000000000000000000AA
:10065000000000000000000000000000000000009A
:10066000000000000000000000000000000000008A
:10067000000000000000000000000000000000007A
:10068000000000C9000000000000000000000000A1
:10069000000000000000000000000000000000005A
:1006A000000000000000000000000000000000004A
:1006B000000000000000000000000000000000003A
:1006C000000000000000000000000000000000002A
:1006D000000000000000000000000000000000001A
:1006E000000000000000000000000000000000000A
:1006F00000000000000000000000000000000000FA
:1007000000000011000000000000000000000000D8
:1007100000000000000000000000000000000000D9
:1007200000000000000000000000000000000000C9
:1007300000000000000000000000000000000000B9
:1007400000000000000000000000000000000000A9
:100750000000000000000000000000000000000099
:100760000000000000000000000000000000000089
:100770000000000000000000000000000000000079
:100780000000002200000000000000000000000047
:100790000000000000000000000000000000000059
:1007A0000000000000000000000000000000000049
:1007B0000000000000000000000000000000000039
:1007C0000000000000000000000000000000000029
:1007D0000000000000000000000000000000000019
:1007E0000000000000000000000000000000000009
:1007F00000000000000000000000000000000000F9
:1008000000000033000000000000000000000000B5
:1008100000000000000000000000000000000000D8
:1008200000000000000000000000000000000000C8
:1008300000000000000000000000000000000000B8
:1008400000000000000000000000000000000000A8
:100850000000000000000000000000000000000098
:100860000000000000000000000000000000000088
:100870000000000000000000000000000000000078
:100880000000004400000000000000000000000024
:100890000000000000000000000000000000000058
:1008A0000000000000000000000000000000000048
:1008B0000000000000000000000000000000000038
:1008C0000000000000000000000000000000000028
:1008D0000000000000000000000000000000000018
:1008E0000000000000000000000000000000000008
:1008F00000000000000000000000000000000000F8
:100900000000005500000000000000000000000092
:1009100000000000000000000000000000000000D7
:1009200000000000000000000000000000000000C7
:1009300000000000000000000000000000000000B7
:1009400000000000000000000000000000000000A7
:100950000000000000000000000000000000000097
:100960000000000000000000000000000000000087
:100970000000000000000000000000000000000077
:100980000000006600000000000000000000000001
:100990000000000000000000000000000000000057
:1009A0000000000000000000000000000000000047
:1009B0000000000000000000000000000000000037
:1009C0000000000000000000000000000000000027
:1009D0000000000000000000000000000000000017
:1009E0000000000000000000000000000000000007
:1009F00000000000000000000000000000000000F7
:040A0000000000777B
:020000040030CA
:0100010026D8
:010002000FEE
:010003000EEE
:0100050001F9
:010006008178
:010008000FE8
:01000900C036
:01000A000FE6
:01000B00E014
:01000C000FE4
:00000001FF
