:020000040000FA
:0400000038EF00F0E5
:020004000000FA
:0200080014D012
:08001800D8CF01F0E8CF00F0A1
:10002000E0CF02F002C0E0FF00C0E8FF01C0D8FF4F
:100030001000D8CF01F0E8CF00F0E0CF02F08A92B4
:100040009EBE01D00ED09EEC01F083CF06F08A86D2
:100050004C0E0650865150EC02F0CBEC01F09E9E07
:100060008A8202C0E0FF00C0E8FF01C0D8FF110093
:1000700074EC00F08A98939893848A829392B8ECF7
:1000800001F018EC01F0898A929A898092908A9600
:10009000939635EC01F07CEC01F0A6EC00F0000E3C
:1000A000F86E010EF76EA00EF66E800EA66E086A50
:1000B000866B876B090000000000F5508FEC00F0A4
:1000C000862B082A100E0818F5E1AFEC00F0BBEC07
:1000D00000F0C5EC00F08980FF0EE3EC00F08990A1
:1000E000FF0EE3EC00F0F7D7C26A0F0EC16EBD6AD7
:1000F000BA6A1200076A000E80EC01F08986ABEC48
:1001000001F0010E3AEC01F0898489928994000093
:1001100069EC01F0076E8984898207501200076E2E
:10012000000E80EC01F0000E3AEC01F0ABEC01F0B7
:1001300007504FEC01F089848992899600008986E6
:10014000898212008984898289861200899292921A
:100150008994929489969296A2EC00F01200928271
:1001600092849286010E80EC01F0010E3AEC01F0CF
:10017000A2EC00F012008A989398320EE3EC00F0A3
:100180008A8881A4FED700001200D09E96809682B5
:100190009684968895689E9E9D8EF28CF28E1200B3
:1001A000F33E02D3000000000000000000C3010085
:1001B000806F000000000000000000000000000050
:1001C000802FF7D71200816F640ED8EC00F0640E18
:1001D000D8EC00F0640ED8EC00F0640ED8EC00F01F
:1001E000812FE4EF00F01200899A400E24EC01F018
:1001F000000E24EC01F0000E24EC01F0898A1200BC
:10020000899A400E24EC01F0825124EC01F08351D4
:1002100024EC01F0898A1200899A410E24EC01F045
:10022000825124EC01F0005024EC01F0898A120084
:100230009488949A9496C66AC96A9E96C78CC79EFB
:10024000C688C698C68A1200846FC69E8451C96E3D
:100250009EA6FED79E96C95012009E96C950000ECB
:10026000C96E9EA6FED7C95012009698010E3AECB0
:1002700001F01200D894010A09E1958095829584D5
:1002800095869588958A958C958E12009590959275
:10029000959495969598959A959C959E1200856F44
:1002A0008C908C928C948C968C988C9A8C9C8C9E36
:1002B00085B18C8085B38C8285B58C8485B78C861E
:1002C00085B98C8885BB8C8A85BD8C8C85BF8C8ECE
:1002D0001200856B83B0858183B2858383B4858565
:1002E00083B6858783B8858983BA858B83BC858DE2
:1002F00083BE858F85511200010E80EC01F0120043
:10030000D894010AD8A40DD0000E826FFF0E836F1F
:1003100000EC01F0010E826FFF0E836F00EC01F024
:100320001200000E826F000E836F00EC01F0010ED0
:10033000826F000E836F00EC01F01200866B876BFA
:10034000120E826F0CEC01F0866F130E826F0CECB4
:1003500001F0876F1200120E826F8651836F00ECDE
:1003600001F0130E826F8751836F00EC01F01200D1
:10037000949C948EAD6AAE6A810EAF6E240EAC6E04
:10038000AC98AB8E12009EA8FED7AD6E12009EAA4E
:10039000FED7AE5012000D0EC3EC01F00A0EC3ECF6
:1003A00001F01200F9262D0C2D0C2D0C2D0C2D0C0E
:1003B0002D0C2D0C2D0C2D0C2D0C2D0C2D0C2D0C75
:1003C0002D0C2D0C2D0C2D0C2D0C2D0C2D0C2D0C65
:1003D0002D0C2D0C2D0C2D0C2D0C2D0C2D0C2D0C55
:1003E0002D0C2D0C2D0C2D0C2D0C2D0C2D0C2D0C45
:1003F0002D0C2D0C2D0C2D0C2D0C2D0C0D0C0A0C78
:10040000540C650C730C740C200C4D0C650C730CA7
:10041000730C610C670C650C0D0C0A0C2D0C2D0C6B
:100420002D0C2D0C2D0C2D0C2D0C2D0C2D0C2D0C04
:100430002D0C2D0C2D0C2D0C2D0C2D0C2D0C2D0CF4
:100440002D0C2D0C2D0C2D0C2D0C2D0C2D0C2D0CE4
:100450002D0C2D0C2D0C2D0C2D0C2D0C2D0C2D0CD4
:100460002D0C2D0C2D0C2D0C2D0C2D0C2D0C2D0CC4
:100470002D0C000C886F88A74BEF02F0080AD8B447
:100480004BEF02F000008851090AD8B44BEF02F09C
:100490000000070E88278851300FC3EC01F01200CE
:1004A000896F89390F0B3AEC02F089510F0B3AEC46
:1004B00002F012008A6F080E8B6F8096370ED8EC10
:1004C00000F08A43D8A067EF02F06AEF02F080964E
:1004D0006BEF02F08086370ED8EC00F08B2F61EFC7
:1004E00002F08086370ED8EC00F0120080869296DB
:0204F0001200F8
:020000040030CA
:0100010026D8
:010002000FEE
:010003000EEE
:0100050001F9
:010006008178
:010008000FE8
:01000900C036
:01000A000FE6
:01000B00E014
:01000C000FE4
:00000001FF
