:020000040000FA
:040000003BEF00F0E2
:020004000000FA
:0200080014D012
:08001800D8CF01F0E8CF00F0A1
:10002000E0CF02F002C0E0FF00C0E8FF01C0D8FF4F
:100030001000D8CF01F0E8CF00F0E0CF02F08A92B4
:100040009EBE01D011D0C4EC01F083CF06F08A86A9
:10005000065076EC02F0F1EC01F0865176EC02F0FD
:10006000F1EC01F09E9E8A8202C0E0FF00C0E8FF32
:1000700001C0D8FF1100A7EC00F08A9893989384F0
:100080008A829392DEEC01F03EEC01F0898A929A2A
:10009000898092908A9693965BEC01F0A2EC01F035
:1000A000DCEC00F0000E866F000E876F3E0EC2EC97
:1000B00000F0010E866F000E876F870EC2EC00F015
:1000C000020E866F000E876FD30EC2EC00F0030E97
:1000D000866F000E876F070EC2EC00F0040E866F6D
:1000E000000E876FC30EC2EC00F0050E866F000E87
:1000F000876F000EC2EC00F0060E866F000E876F51
:10010000000EC2EC00F0070E866F000E876F000E27
:10011000C2EC00F0080E866F000E876F000EC2EC76
:1001200000F0090E866F000E876F000EC2EC00F023
:10013000E5EC00F0EFEC00F0F8EC00F08980FF0E49
:1001400009EC01F08990FF0E09EC01F0F7D7C26AC3
:100150000F0EC16EBD6ABA6A1200076A000EA6ECE5
:1001600001F08986D1EC01F0010E60EC01F0898488
:100170008992899400008FEC01F0076E898489824E
:1001800007501200076E000EA6EC01F0000E60ECA6
:1001900001F0D1EC01F0075075EC01F089848992EF
:1001A000899689868982866B876BD1EC01F0120073
:1001B0008984898289861200899292928994929484
:1001C00089969296D8EC00F01200928292849286E0
:1001D000010EA6EC01F0010E60EC01F012008A980D
:1001E0009398320E09EC01F08A8881A4FED71200A0
:1001F000D09E968096829684968895689E9E9D8EC7
:06020000F28CF28E1200E8
:0A020600806F00000000802FFCD77D
:100210001200816F640E03EC01F0640E03EC01F038
:10022000640E03EC01F0640E03EC01F0812F0AEF81
:1002300001F01200899A400E4AEC01F0000E4AECDF
:1002400001F0000E4AEC01F0898A1200899A400EF2
:100250004AEC01F082514AEC01F083514AEC01F082
:10026000898A1200899A410E4AEC01F082514AECC7
:1002700001F000504AEC01F0898A12009488949AA7
:100280009496C66AC96A9E96C78CC79EC688C69849
:10029000C68A1200846FC69E8451C96E9EA6FED780
:1002A0009E96C95012009E96C950000EC96E9EA619
:1002B000FED7C95012009698010E60EC01F01200B2
:1002C000D894010A09E19580958295849586958850
:1002D000958A958C958E1200959095929594959609
:1002E0009598959A959C959E1200856F8C908C920E
:1002F0008C948C968C988C9A8C9C8C9E85B18C80DE
:1003000085B38C8285B58C8485B78C8685B98C88BD
:1003100085BB8C8A85BD8C8C85BF8C8E1200856BCD
:1003200083B0858183B2858383B4858583B68587D1
:1003300083B8858983BA858B83BC858D83BE858F81
:1003400085511200010EA6EC01F01200D894010AAA
:10035000D8A40DD0000E826FFF0E836F26EC01F043
:10036000010E826FFF0E836F26EC01F01200000E6B
:10037000826F000E836F26EC01F0010E826F000E7B
:10038000836F26EC01F01200866B876B120E826F72
:1003900032EC01F0866F130E826F32EC01F0876F42
:1003A0001200120E826F8651836F26EC01F0130E3D
:1003B000826F8751836F26EC01F01200949C948E1B
:1003C000AD6AAE6A6A0EAF6E240EAC6EAC98AB8EA0
:1003D00012009EA8FED7AD6E12009EAAFED7AE50A8
:1003E00012000D0EE9EC01F00A0EE9EC01F012002A
:1003F000F9262D0C2D0C2D0C2D0C2D0C2D0C2D0C4F
:100400002D0C2D0C2D0C2D0C2D0C2D0C2D0C2D0C24
:100410002D0C2D0C2D0C2D0C2D0C2D0C2D0C2D0C14
:100420002D0C2D0C2D0C2D0C2D0C2D0C2D0C2D0C04
:100430002D0C2D0C2D0C2D0C2D0C2D0C2D0C2D0CF4
:100440002D0C2D0C2D0C2D0C0D0C0A0C540C650CC8
:10045000730C740C200C4D0C650C730C730C610C3C
:10046000670C650C0D0C0A0C2D0C2D0C2D0C2D0C95
:100470002D0C2D0C2D0C2D0C2D0C2D0C2D0C2D0CB4
:100480002D0C2D0C2D0C2D0C2D0C2D0C2D0C2D0CA4
:100490002D0C2D0C2D0C2D0C2D0C2D0C2D0C2D0C94
:1004A0002D0C2D0C2D0C2D0C2D0C2D0C2D0C2D0C84
:1004B0002D0C2D0C2D0C2D0C2D0C2D0C2D0C000CA1
:1004C000886F88A771EF02F0080AD8B471EF02F0C4
:1004D00000008851090AD8B471EF02F00000070E3D
:1004E00088278851300FE9EC01F01200896F8939B3
:1004F0000F0B60EC02F089510F0B60EC02F0120060
:100500008A6F080E8B6F8096370E03EC01F08A43DA
:10051000D8A08DEF02F090EF02F0809691EF02F0FC
:100520008086370E03EC01F08B2F87EF02F0808678
:0E053000370E03EC01F0120080869296120046
:020000040030CA
:0100010026D8
:010002000FEE
:010003000EEE
:0100050001F9
:010006008178
:010008000FE8
:01000900C036
:01000A000FE6
:01000B00E014
:01000C000FE4
:00000001FF
