:020000040000FA
:040000003BEF00F0E2
:020004000000FA
:0200080014D012
:08001800D8CF01F0E8CF00F0A1
:10002000E0CF02F002C0E0FF00C0E8FF01C0D8FF4F
:100030001000D8CF01F0E8CF00F0E0CF02F08A92B4
:100040009EBE01D011D0C6EC01F083CF06F08A86A7
:10005000065078EC02F0F3EC01F0865178EC02F0F7
:10006000F3EC01F09E9E8A8202C0E0FF00C0E8FF30
:1000700001C0D8FF1100A7EC00F08A9893989384F0
:100080008A829392E0EC01F040EC01F0898A929A26
:10009000898092908A9693965DEC01F0A4EC01F031
:1000A000DCEC00F0000E866F000E876F3E0EC2EC97
:1000B00000F0010E866F000E876F870EC2EC00F015
:1000C000020E866F000E876FD30EC2EC00F0030E97
:1000D000866F000E876F070EC2EC00F0040E866F6D
:1000E000000E876FC30EC2EC00F0050E866F000E87
:1000F000876F000EC2EC00F0060E866F000E876F51
:10010000000EC2EC00F0070E866F000E876F000E27
:10011000C2EC00F0080E866F000E876F000EC2EC76
:1001200000F0090E866F000E876F000EC2EC00F023
:10013000E5EC00F0F1EC00F0FAEC00F08980FF0E45
:100140000BEC01F08990FF0E0BEC01F0F7D7C26ABF
:100150000F0EC16EBD6ABA6A1200076A000EA8ECE3
:1001600001F08986D3EC01F0010E62EC01F0898484
:1001700089928994000091EC01F0076E898489824C
:1001800007501200076E000EA8EC01F0000E62ECA2
:1001900001F0D3EC01F0075077EC01F089848992EB
:1001A000899689868982866B876BD3EC01F0120071
:1001B0008984898289861200899292928994929484
:1001C00089969296D8EC00F01200928292849286E0
:1001D000010EA8EC01F0010E62EC01F0D8EC00F089
:1001E00012008A989398320E0BEC01F08A8881A451
:1001F000FED71200D09E9680968296849688956847
:0A0200009E9E9D8EF28CF28E12007D
:06020A00806F00000000FF
:10021000802FFCD71200816F640E05EC01F0640E94
:1002200005EC01F0640E05EC01F0640E05EC01F044
:10023000812F0CEF01F01200899A400E4CEC01F076
:10024000000E4CEC01F0000E4CEC01F0898A12001B
:10025000899A400E4CEC01F082514CEC01F0835134
:100260004CEC01F0898A1200899A410E4CEC01F0A5
:1002700082514CEC01F000504CEC01F0898A1200E4
:100280009488949A9496C66AC96A9E96C78CC79EAB
:10029000C688C698C68A1200846FC69E8451C96EED
:1002A0009EA6FED79E96C95012009E96C950000E7B
:1002B000C96E9EA6FED7C95012009698010E62EC38
:1002C00001F01200D894010A09E195809582958485
:1002D00095869588958A958C958E12009590959225
:1002E000959495969598959A959C959E1200856FF4
:1002F0008C908C928C948C968C988C9A8C9C8C9EE6
:1003000085B18C8085B38C8285B58C8485B78C86CD
:1003100085B98C8885BB8C8A85BD8C8C85BF8C8E7D
:100320001200856B83B0858183B2858383B4858514
:1003300083B6858783B8858983BA858B83BC858D91
:1003400083BE858F85511200010EA8EC01F01200CA
:10035000D894010AD8A40DD0000E826FFF0E836FCF
:1003600028EC01F0010E826FFF0E836F28EC01F084
:100370001200000E826F000E836F28EC01F0010E58
:10038000826F000E836F28EC01F01200866B876B82
:10039000120E826F34EC01F0866F130E826F34EC14
:1003A00001F0876F1200120E826F8651836F28EC66
:1003B00001F0130E826F8751836F28EC01F0120059
:1003C000949C948EAD6AAE6A6A0EAF6E240EAC6ECB
:1003D000AC98AB8E12009EA8FED7AD6E12009EAAFE
:1003E000FED7AE5012000D0EEBEC01F00A0EEBEC56
:1003F00001F01200F9262D0C2D0C2D0C2D0C2D0CBE
:100400002D0C2D0C2D0C2D0C2D0C2D0C2D0C2D0C24
:100410002D0C2D0C2D0C2D0C2D0C2D0C2D0C2D0C14
:100420002D0C2D0C2D0C2D0C2D0C2D0C2D0C2D0C04
:100430002D0C2D0C2D0C2D0C2D0C2D0C2D0C2D0CF4
:100440002D0C2D0C2D0C2D0C2D0C2D0C0D0C0A0C27
:10045000540C650C730C740C200C4D0C650C730C57
:10046000730C610C670C650C0D0C0A0C2D0C2D0C1B
:100470002D0C2D0C2D0C2D0C2D0C2D0C2D0C2D0CB4
:100480002D0C2D0C2D0C2D0C2D0C2D0C2D0C2D0CA4
:100490002D0C2D0C2D0C2D0C2D0C2D0C2D0C2D0C94
:1004A0002D0C2D0C2D0C2D0C2D0C2D0C2D0C2D0C84
:1004B0002D0C2D0C2D0C2D0C2D0C2D0C2D0C2D0C74
:1004C0002D0C000C886F88A773EF02F0080AD8B4CF
:1004D00073EF02F000008851090AD8B473EF02F0FC
:1004E0000000070E88278851300FEBEC01F0120056
:1004F000896F89390F0B62EC02F089510F0B62ECA6
:1005000002F012008A6F080E8B6F8096370E05EC92
:1005100001F08A43D8A08FEF02F092EF02F08096AC
:1005200093EF02F08086370E05EC01F08B2F89EFF8
:1005300002F08086370E05EC01F01200808692965C
:020540001200A7
:020000040030CA
:0100010026D8
:010002000FEE
:010003000EEE
:0100050001F9
:010006008178
:010008000FE8
:01000900C036
:01000A000FE6
:01000B00E014
:01000C000FE4
:00000001FF
