:020000040000FA
:0400000039EF00F0E4
:020004000000FA
:0200080014D012
:08001800D8CF01F0E8CF00F0A1
:10002000E0CF02F002C0E0FF00C0E8FF01C0D8FF4F
:100030001000D8CF01F0E8CF00F0E0CF02F0F2B22C
:1000400001D010D08C8CB7EC01F08651050A01E08C
:1000500008D082EC01F0000A01E002D08C9C01D0B3
:100060008C8CF29202C0E0FF00C0E8FF01C0D8FF14
:10007000110098EC00F08C9E959ED1EC01F032ECD2
:1000800001F0898A929A89809290959C8C9C958A9D
:100090004FEC01F095EC01F0D1EC00F0000E866F12
:1000A000000E876F3E0EB3EC00F0010E866F000E5F
:1000B000876F010EB3EC00F0020E866F000E876FA3
:1000C000D30EB3EC00F0030E866F000E876F050EA3
:1000D000B3EC00F0040E866F000E876FC30EB3EC16
:1000E00000F0050E866F000E876F000EB3EC00F077
:1000F000060E866F000E876F000EB3EC00F0070E41
:10010000866F000E876F760EB3EC00F0E4EC00F023
:10011000DAEC00F0F1EC00F08980580EDCEC01F034
:10012000FF0EFDEC00F08990FF0EFDEC00F0F4D71F
:10013000C26A0F0EC16EBD6ABA6A1200076A000E6B
:1001400099EC01F08986C4EC01F0010E53EC01F04A
:10015000898489928994000082EC01F0076E898479
:10016000898207501200076E000E99EC01F0000E14
:1001700053EC01F0C4EC01F0075068EC01F0898405
:10018000899289960000000000000000898689821B
:10019000866B876BC4EC01F01200898489828986A2
:1001A0001200899292928994929489969296CDECBB
:1001B00000F01200928292849286010E99EC01F076
:1001C000010E53EC01F012008C9E959EFF0EFDEC8B
:1001D00000F0FF0EFDEC00F0FF0EFDEC00F0958E40
:1001E0001200F19CF292F288D09EF28CF28E1200F4
:1001F000806F0000802FFDD71200816F640EF8EC35
:1002000000F0640EF8EC00F0640EF8EC00F0640E00
:10021000F8EC00F0812FFEEF00F01200899A400EFA
:100220003EEC01F0000E3EEC01F0000E3EEC01F061
:10023000898A1200899A400E3EEC01F082513EEC10
:1002400001F083513EEC01F0898A1200899A410E37
:100250003EEC01F082513EEC01F000503EEC01F02A
:10026000898A12009488949A9496C66AC96A9E965E
:10027000C78CC79EC688C698C68A1200846FC69E61
:100280008451C96E9EA6FED79E96C95012009E96B6
:10029000C950000EC96E9EA6FED7C9501200010EAD
:1002A00053EC01F01200D894010A09E19480948281
:1002B0009484958095829584958695881200949073
:1002C0009492949495909592959495969598120001
:1002D000856F8B908B928B948C908C928C948C9657
:1002E0008C9885B18B8085B38B8285B58B8485B7DF
:1002F0008C8085B98C8285BB8C8485BD8C8685BFBE
:100300008C881200856B82B0858182B2858382B42D
:10031000858583B0858783B2858983B4858B83B6D1
:10032000858D83B8858F85511200010E99EC01F0FF
:100330001200D894010AD8A40DD0000E826FFF0ECF
:10034000836F1AEC01F0010E826FFF0E836F1AECBF
:1003500001F01200000E826F000E836F1AEC01F0A4
:10036000010E826F000E836F1AEC01F01200866B93
:10037000876B120E826F26EC01F0866F130E826F70
:1003800026EC01F0876F1200120E826F8651836F88
:100390001AEC01F0130E826F8751836F1AEC01F093
:1003A0001200949C948EAD6AAE6A400EAF6E240E1D
:1003B000AC6EAC98AB8E12009EA8FED7AD6E12004C
:1003C0009EAAFED7AE5012000D0EDCEC01F00A0E14
:1003D000DCEC01F01200F9262D0C2D0C2D0C2D0C4F
:1003E0002D0C2D0C2D0C2D0C2D0C2D0C2D0C2D0C45
:1003F0002D0C2D0C2D0C2D0C2D0C2D0C2D0C2D0C35
:100400002D0C2D0C2D0C2D0C2D0C2D0C2D0C2D0C24
:100410002D0C2D0C2D0C2D0C2D0C2D0C2D0C2D0C14
:100420002D0C2D0C2D0C2D0C2D0C2D0C2D0C0D0C24
:100430000A0C540C650C730C740C200C4D0C650CE0
:10044000730C730C610C670C650C0D0C0A0C2D0CF5
:100450002D0C2D0C2D0C2D0C2D0C2D0C2D0C2D0CD4
:100460002D0C2D0C2D0C2D0C2D0C2D0C2D0C2D0CC4
:100470002D0C2D0C2D0C2D0C2D0C2D0C2D0C2D0CB4
:100480002D0C2D0C2D0C2D0C2D0C2D0C2D0C2D0CA4
:100490002D0C2D0C2D0C2D0C2D0C2D0C2D0C2D0C94
:1004A0002D0C2D0C000C886F88A764EF02F0080A51
:1004B000D8B464EF02F000008851090AD8B464EFA0
:1004C00002F00000070E88278851300FDCEC01F0A5
:1004D0001200896F080E8A6F8096370EF8EC00F0D4
:1004E0008943D8A076EF02F079EF02F080967AEF98
:1004F00002F08086370EF8EC00F08A2F70EF02F0E1
:100500008086370EF8EC00F012008086929612007A
:020000040030CA
:0100010002FC
:010002000FEE
:010003000EEE
:0100050001F9
:010006008178
:010008000FE8
:01000900C036
:01000A000FE6
:01000B00E014
:01000C000FE4
:00000001FF
