:020000040000FA
:0400000032EF00F0EB
:020004000000FA
:0200080014D012
:08001800D8CF01F0E8CF00F0A1
:10002000E0CF02F002C0E0FF00C0E8FF01C0D8FF4F
:100030001000D8CF01F0E8CF00F0E0CF02F08A92B4
:100040009EBE01D008D096EC01F083CF06F08A86E0
:100050004C0E9E9E8A8202C0E0FF00C0E8FF01C0F5
:10006000D8FF11006EEC00F08A98939893848A82EE
:100070009392B0EC01F010EC01F0898A929A898099
:1000800092908A9693962DEC01F074EC01F0A6EC18
:1000900000F0000EF86E040EF76EE20EF66E800EA3
:1000A000A66E866B876B090000000000F55089EC96
:1000B00000F0863FF8D7872B8751040AF4E1AFECB4
:1000C00000F0BBEC00F0C5EC00F08980FF0EDBEC2B
:1000D00000F08990FF0EDBEC00F0F7D7C26A0F0E3C
:1000E000C16EBD6ABA6A1200076A000E78EC01F0B0
:1000F0008986A3EC01F0010E32EC01F0898489922B
:100100008994000061EC01F0076E898489820750B0
:100110001200076E075048EC02F0200EBBEC01F015
:10012000000E78EC01F0000E32EC01F0A3EC01F0CF
:10013000075047EC01F089848992899600008986EE
:10014000898212008984898289861200899292921A
:100150008994929489969296A2EC00F01200928271
:1001600092849286010E78EC01F0010E32EC01F0DF
:10017000A2EC00F012008A989398320EDBEC00F0AB
:100180008A8881A4FED700001200D09E96809682B5
:100190009684968895689E9E9D8EF28CF28E1200B3
:1001A000806F000000000000000000000000000060
:1001B000802FF7D71200816F640ED0EC00F0640E30
:1001C000D0EC00F0640ED0EC00F0640ED0EC00F047
:1001D000812FDCEF00F01200899A400E1CEC01F038
:1001E000000E1CEC01F0000E1CEC01F0898A1200DC
:1001F000899A400E1CEC01F082511CEC01F08351F5
:100200001CEC01F0898A1200899A410E1CEC01F065
:1002100082511CEC01F000501CEC01F0898A1200A4
:100220009488949A9496C66AC96A9E96C78CC79E0B
:10023000C688C698C68A1200846FC69E8451C96E4D
:100240009EA6FED79E96C95012009E96C950000EDB
:10025000C96E9EA6FED7C95012009698010E32ECC8
:1002600001F01200D894010A09E1958095829584E5
:1002700095869588958A958C958E12009590959285
:10028000959495969598959A959C959E1200856F54
:100290008C908C928C948C968C988C9A8C9C8C9E46
:1002A00085B18C8085B38C8285B58C8485B78C862E
:1002B00085B98C8885BB8C8A85BD8C8C85BF8C8EDE
:1002C0001200856B83B0858183B2858383B4858575
:1002D00083B6858783B8858983BA858B83BC858DF2
:1002E00083BE858F85511200010E78EC01F012005B
:1002F000D894010AD8A40DD0000E826FFF0E836F30
:10030000F8EC00F0010E826FFF0E836FF8EC00F046
:100310001200000E826F000E836FF8EC00F0010EE9
:10032000826F000E836FF8EC00F01200866B876B13
:10033000120E826F04EC01F0866F130E826F04ECD4
:1003400001F0876F1200120E826F8651836FF8ECF6
:1003500000F0130E826F8751836FF8EC00F01200EB
:10036000949C948EAD6AAE6A810EAF6E240EAC6E14
:10037000AC98AB8E12009EA8FED7AD6E12009EAA5E
:10038000FED7AE5012000D0EBBEC01F00A0EBBEC16
:1003900001F01200F9262D0C2D0C2D0C2D0C2D0C1E
:1003A0002D0C2D0C2D0C2D0C2D0C2D0C2D0C2D0C85
:1003B0002D0C2D0C2D0C2D0C2D0C2D0C2D0C2D0C75
:1003C0002D0C2D0C2D0C2D0C2D0C2D0C2D0C2D0C65
:1003D0002D0C2D0C2D0C2D0C2D0C2D0C2D0C2D0C55
:1003E0002D0C2D0C2D0C2D0C2D0C2D0C0D0C0A0C88
:1003F000540C650C730C740C200C4D0C650C730CB8
:10040000730C610C670C650C0D0C0A0C2D0C2D0C7B
:100410002D0C2D0C2D0C2D0C2D0C2D0C2D0C2D0C14
:100420002D0C2D0C2D0C2D0C2D0C2D0C2D0C2D0C04
:100430002D0C2D0C2D0C2D0C2D0C2D0C2D0C2D0CF4
:100440002D0C2D0C2D0C2D0C2D0C2D0C2D0C2D0CE4
:100450002D0C2D0C2D0C2D0C2D0C2D0C2D0C2D0CD4
:100460002D0C000C886F88A743EF02F0080AD8B45F
:1004700043EF02F000008851090AD8B443EF02F0BC
:100480000000070E88278851300FBBEC01F01200E6
:10049000896F89390F0B32EC02F089510F0B32EC66
:1004A00002F012008A6F080E8B6F8096370ED0EC28
:1004B00000F08A43D8A05FEF02F062EF02F080966E
:1004C00063EF02F08086370ED0EC00F08B2F59EFEF
:1004D00002F08086370ED0EC00F0120080869296F3
:1004E0001200F33E02D3000000000000000000C331
:1004F00001000000000000000000000000000000FB
:1005000000000000000000000000000000000000EB
:1005100000000000000000000000000000000000DB
:1005200000000000000000000000000000000000CB
:1005300000000000000000000000000000000000BB
:1005400000000000000000000000000000000000AB
:10055000000000000000000000000000000000009B
:10056000001100000000000000000000000000007A
:10057000000000000000000000000000000000007B
:10058000000000000000000000000000000000006B
:10059000000000000000000000000000000000005B
:1005A000000000000000000000000000000000004B
:1005B000000000000000000000000000000000003B
:1005C000000000000000000000000000000000002B
:1005D000000000000000000000000000000000001B
:1005E00000220000000000000000000000000000E9
:1005F00000000000000000000000000000000000FB
:1006000000000000000000000000000000000000EA
:1006100000000000000000000000000000000000DA
:1006200000000000000000000000000000000000CA
:1006300000000000000000000000000000000000BA
:1006400000000000000000000000000000000000AA
:10065000000000000000000000000000000000009A
:100660000033000000000000000000000000000057
:10067000000000000000000000000000000000007A
:10068000000000000000000000000000000000006A
:10069000000000000000000000000000000000005A
:1006A000000000000000000000000000000000004A
:1006B000000000000000000000000000000000003A
:1006C000000000000000000000000000000000002A
:1006D000000000000000000000000000000000001A
:1006E00000440000000000000000000000000000C6
:1006F00000000000000000000000000000000000FA
:1007000000000000000000000000000000000000E9
:1007100000000000000000000000000000000000D9
:1007200000000000000000000000000000000000C9
:1007300000000000000000000000000000000000B9
:1007400000000000000000000000000000000000A9
:100750000000000000000000000000000000000099
:100760000055000000000000000000000000000034
:100770000000000000000000000000000000000079
:100780000000000000000000000000000000000069
:100790000000000000000000000000000000000059
:1007A0000000000000000000000000000000000049
:1007B0000000000000000000000000000000000039
:1007C0000000000000000000000000000000000029
:1007D0000000000000000000000000000000000019
:1007E00000660000000000000000000000000000A3
:1007F00000000000000000000000000000000000F9
:1008000000000000000000000000000000000000E8
:1008100000000000000000000000000000000000D8
:1008200000000000000000000000000000000000C8
:1008300000000000000000000000000000000000B8
:1008400000000000000000000000000000000000A8
:100850000000000000000000000000000000000098
:100860000077000000000000000000000000000011
:100870000000000000000000000000000000000078
:100880000000000000000000000000000000000068
:100890000000000000000000000000000000000058
:1008A0000000000000000000000000000000000048
:1008B0000000000000000000000000000000000038
:1008C0000000000000000000000000000000000028
:1008D0000000000000000000000000000000000018
:0208E00000888E
:020000040030CA
:0100010026D8
:010002000FEE
:010003000EEE
:0100050001F9
:010006008178
:010008000FE8
:01000900C036
:01000A000FE6
:01000B00E014
:01000C000FE4
:00000001FF
