:020000040000FA
:040000001AEF00F003
:020004000000FA
:0200080014D012
:08001800D8CF01F0E8CF00F0A1
:10002000E0CF02F002C0E0FF00C0E8FF01C0D8FF4F
:100030001000110066EC00F08C9E959E93EC01F090
:10004000F4EC00F0898A929A8980929011EC01F088
:1000500057EC01F09DEC00F0000E866F000E876FEC
:10006000000E80EC00F0010E866F000E876F000E10
:1000700080EC00F0020E866F000E876F000E80ECA1
:1000800000F0030E866F000E876F000E80EC00F00C
:10009000040E866F000E876F000E80EC00F0050ED8
:1000A000866F000E876F000E80EC00F0B0EC00F061
:1000B000A6EC00F08980580E9EEC01F0FF0EBFEC1C
:1000C00000F08990FF0EBFEC00F0F4D7C26A0F0E6B
:1000D000C16EBD6ABA6A1200046A000E5BEC01F0E0
:1000E000898686EC01F0010E15EC01F08984899275
:1000F000899444EC01F0046E8984898204501200D2
:10010000046E000E5BEC01F0000E15EC01F086ECC5
:1001100001F004502AEC01F0898489928996640EDA
:10012000BFEC00F089868982866B876B86EC01F0D4
:100130001200898489828986120089929292899418
:1001400092948996929699EC00F012009282928491
:100150009286010E5BEC01F0010E15EC01F012002D
:100160008C9E959EFF0EBFEC00F0FF0EBFEC00F0E2
:04017000958E120056
:0C017400806F0000802FFDD71200816F0B
:10018000640EBAEC00F0640EBAEC00F0640EBAEC47
:1001900000F0640EBAEC00F0812FC0EF00F0120006
:1001A000899A400E00EC01F0000E00EC01F0000E08
:1001B00000EC01F0898A1200899A400E00EC01F0EF
:1001C000825100EC01F0835100EC01F0898A1200A9
:1001D000899A410E00EC01F0825100EC01F00050D0
:1001E00000EC01F0898A12009488949A9496C66A69
:1001F000C96A9E96C78CC79EC688C698C68A1200D2
:10020000846FC69E8451C96E9EA6FED79E96C95025
:1002100012009E96C950000EC96E9EA6FED7C95008
:100220001200010E15EC01F01200D894010A09E148
:1002300094809482948495809582958495869588FF
:10024000120094909492949495909592959495968A
:1002500095981200856F8B908B928B948C908C92DA
:100260008C948C968C9885B18B8085B38B8285B568
:100270008B8485B78C8085B98C8285BB8C8485BD49
:100280008C8685BF8C881200856B82B0858182B296
:10029000858382B4858583B0858783B2858983B45D
:1002A000858B83B6858D83B8858F85511200010EAD
:1002B0005BEC01F01200D894010AD8A40DD0000E16
:1002C000826FFF0E836FDCEC00F0010E826FFF0E79
:1002D000836FDCEC00F01200000E826F000E836F63
:1002E000DCEC00F0010E826F000E836FDCEC00F09E
:1002F0001200866B876B120E826FE8EC00F0866F3F
:10030000130E826FE8EC00F0876F1200120E826FFE
:100310008651836FDCEC00F0130E826F8751836F80
:10032000DCEC00F01200949C948EAD6AAE6A400E34
:10033000AF6E240EAC6EAC98AB8E12009EA8FED7AA
:10034000AD6E12009EAAFED7AE5012000D0E9EECAE
:1003500001F00A0E9EEC01F01200F9262D0C2D0C76
:100360002D0C2D0C2D0C2D0C2D0C2D0C2D0C2D0CC5
:100370002D0C2D0C2D0C2D0C2D0C2D0C2D0C2D0CB5
:100380002D0C2D0C2D0C2D0C2D0C2D0C2D0C2D0CA5
:100390002D0C2D0C2D0C2D0C2D0C2D0C2D0C2D0C95
:1003A0002D0C2D0C2D0C2D0C2D0C2D0C2D0C2D0C85
:1003B0002D0C0D0C0A0C540C650C730C740C200CD9
:1003C0004D0C650C730C730C610C670C650C0D0CFB
:1003D0000A0C2D0C2D0C2D0C2D0C2D0C2D0C2D0C78
:1003E0002D0C2D0C2D0C2D0C2D0C2D0C2D0C2D0C45
:1003F0002D0C2D0C2D0C2D0C2D0C2D0C2D0C2D0C35
:100400002D0C2D0C2D0C2D0C2D0C2D0C2D0C2D0C24
:100410002D0C2D0C2D0C2D0C2D0C2D0C2D0C2D0C14
:100420002D0C2D0C2D0C2D0C000C886F88A726EFA1
:1004300002F0080AD8B426EF02F000008851090A39
:10044000D8B426EF02F00000070E88278851300F3D
:100450009EEC01F01200896F080E8A6F8096370EAD
:10046000BAEC00F08943D8A038EF02F03BEF02F07D
:1004700080963CEF02F08086370EBAEC00F08A2FAF
:1004800032EF02F08086370EBAEC00F01200808660
:04049000929612002E
:020000040030CA
:0100010002FC
:010002000FEE
:010003000EEE
:0100050001F9
:010006008178
:010008000FE8
:01000900C036
:01000A000FE6
:01000B00E014
:01000C000FE4
:00000001FF
