:020000040000FA
:040000001AEF00F003
:020004000000FA
:0200080014D012
:08001800D8CF81F0E8CF80F0A1
:10002000E0CF82F082C0E0FF80C0E8FF81C0D8FF4F
:100030001000110049EC00F051EC00F06FEC01F001
:10004000898A929A898092908992929289949294C4
:10005000899692968CEC01F0D3EC01F031EC01F032
:100060000F0E826F836F550E18EC01F08980FF0E22
:100070003AEC01F0826B836B0F0E826F836F04EC9E
:1000800001F0550AD8A4F2D78990FF0E3AEC01F09E
:10009000EDD7C26A0F0EC16EBD6ABA6A80869296AB
:1000A0001200949CAD6AAE6A400EAF6E240EAC6E28
:1000B000AC98AB8E12009EA8FED7AD6E12009EAA21
:1000C000FED7AE5012000D0E5BEC00F00A0E5BEC9A
:1000D00000F01200F9262D0C2D0C2D0C2D0C2D0CE2
:1000E0002D0C2D0C2D0C2D0C2D0C2D0C2D0C2D0C48
:1000F0002D0C2D0C2D0C2D0C2D0C2D0C2D0C2D0C38
:100100002D0C2D0C2D0C2D0C2D0C2D0C2D0C2D0C27
:100110002D0C2D0C2D0C2D0C2D0C2D0C2D0C2D0C17
:100120002D0C2D0C2D0C2D0C2D0C2D0C0D0C0A0C4A
:10013000540C650C730C740C200C4D0C650C730C7A
:10014000730C610C670C650C0D0C0A0C2D0C2D0C3E
:100150002D0C2D0C2D0C2D0C2D0C2D0C2D0C2D0CD7
:100160002D0C2D0C2D0C2D0C2D0C2D0C2D0C2D0CC7
:100170002D0C2D0C2D0C2D0C2D0C2D0C2D0C2D0CB7
:100180002D0C2D0C2D0C2D0C2D0C2D0C2D0C2D0CA7
:100190002D0C2D0C2D0C2D0C2D0C2D0C2D0C2D0C97
:1001A0002D0C000C856F85A7E3EF00F0080AD8B48A
:1001B000E3EF00F000008551090AD8B4E3EF00F046
:1001C0000000070E85278551300F5BEC00F0120010
:1001D000886F080E896F8096370E35EC01F08843E2
:1001E000D8A0F5EF00F0F8EF00F08096F9EF00F0FE
:1001F0008086370E35EC01F0892FEFEF00F0808616
:10020000370E35EC01F01200876B000ED7EC01F0D1
:10021000898602EC02F0010E90EC01F0898489825B
:100220008994C0EC01F0876F89848992875112000C
:10023000876F000ED7EC01F0000E90EC01F002EC9D
:1002400002F08751A6EC01F0898489828996640EB8
:100250003AEC01F089868992826B836B02EC02F0A2
:0A0260001200898489928986120039
:06026A00806F802F36EFCB
:1002700001F01200816F640E35EC01F0640E35EC74
:1002800001F0640E35EC01F0640E35EC01F0812FC5
:100290003BEF01F01200899A400E7BEC01F0000E5A
:1002A0007BEC01F0000E7BEC01F0898A1200899A48
:1002B000400E7BEC01F084517BEC01F085517BEC2E
:1002C00001F0898A1200899A410E7BEC01F0845179
:1002D0007BEC01F000507BEC01F0898A12009488DD
:1002E000949A9496C66AC96A9E96C78CC79EC68819
:1002F000C698C68A1200866FC69E8651C96E9EA693
:10030000FED79E96C95012009E96C950000EC96E27
:100310009EA6FED7C9501200010E90EC01F012000B
:10032000D894010AD8A409D09480948294849580AA
:1003300095829584958695881200949094929494D1
:10034000959095929594959695981200876F8B90BD
:100350008B928B948C908C928C948C968C9887B189
:100360008B8087B38B8287B58B8487B78C8087B966
:100370008C8287BB8C8487BD8C8687BF8C8812005B
:10038000876B82B0878182B2878382B4878583B08E
:10039000878783B2878983B4878B83B6878D83B839
:1003A000878F87511200010ED7EC01F01200D8940C
:1003B000010AD8A40DD0000E846FFF0E856F57EC94
:1003C00001F0010E846FFF0E856F57EC01F01200F3
:1003D000000E846F000E856F57EC01F0010E846FE4
:1003E000000E856F57EC01F01200886B896B120EBE
:1003F000846F63EC01F0886F130E846F63EC01F07F
:10040000896F1200120E846F8851856F57EC01F0CE
:0E041000130E846F8951856F57EC01F01200B6
:020000040030CA
:0100010002FC
:010002000FEE
:010003000EEE
:0100050001F9
:010006008178
:010008000FE8
:01000900C036
:01000A000FE6
:01000B00E014
:01000C000FE4
:00000001FF
