:020000040000FA
:0400000056EF00F0C7
:020004000000FA
:060008008B94949412D0C9
:08001800D8CF01F0E8CF00F0A1
:10002000E0CF02F002C0E0FF00C0E8FF01C0D8FF4F
:100030001000D8CF01F0E8CF00F0E0CF02F09EBE74
:1000400001D02BD08A8696AE12D008B424D008A056
:1000500022D0EA6A840EE96E8251E9268350EF6E5F
:10006000822B969A8251020AD8B4088414D096BE84
:1000700012D008B410D008A20ED08351000A08E0B4
:10008000880EE96E83078351E926EFCF8CFF03D0FA
:100090000892088000D0969A9E9E02C0E0FF00C0A1
:1000A000E8FF01C0D8FF08A4948411007BEC00F0A5
:1000B0008A98939893848A829392948402EC02F0B3
:1000C00062EC01F0898A929A899092908A9693962E
:1000D0007FEC01F0C6EC01F0D3EC00F00AEC01F08B
:1000E000DCEC00F0E8EC00F0F2EC00F0088008B482
:1000F00085EC00F0FCD7C26A0F0EC16EBD6ABA6A09
:100100008A909390110ED56E12008980F29E089409
:100110000890826B84510DEC02F085510DEC02F0D9
:1001200015EC02F0846B856B866B876B000E836F1A
:10013000230E886F8C6E0882F28E948412000892CF
:10014000836B886B896B8A6B8B6B08801200076AE4
:10015000000ECAEC01F08986F5EC01F0010E84EC8A
:1001600001F08984899289940000B3EC01F0076E54
:100170008984898207501200076E000ECAEC01F0D4
:10018000000E84EC01F0F5EC01F0075099EC01F061
:1001900089848992899600008986898212008984DF
:1001A0008982898612008992929289949294899682
:1001B0009296CFEC00F01200928292849286010E09
:1001C000CAEC01F0010E84EC01F0CFEC00F012005B
:1001D0008A989398320E2DEC01F08A8881A4FED77C
:1001E00000001200D09E968096829684968895682C
:1001F0009E9E9D8EF28CF28E8A809382836B826BA0
:10020000086A886B896B8A6B8B6B846B856B866BDA
:10021000876B1200000EF86E050EF76E860EF66EF6
:10022000800EA66E916B926B090000000000F550E5
:10023000BCEC00F0913FF8D7922B9251040AF4E104
:040240001200120096
:0C024400806F00000000000000000000BF
:1002500000000000802FF7D71200816F640E22EC9F
:1002600001F0640E22EC01F0640E22EC01F0640E49
:1002700022EC01F0812F2EEF01F01200899A400E3E
:100280006EEC01F0000E6EEC01F0000E6EEC01F071
:10029000898A1200899A400E6EEC01F08D516EEC45
:1002A00001F08E516EEC01F0898A1200899A410E9C
:1002B0006EEC01F08D516EEC01F000506EEC01F02F
:1002C000898A12009488949A9496C66AC96A9E96FE
:1002D000C78CC79EC688C698C68A12008F6FC69EF6
:1002E0008F51C96E9EA6FED79E96C95012009E964B
:1002F000C950000EC96E9EA6FED7C950120096982E
:10030000010E84EC01F01200D894010A09E19580F5
:100310009582958495869588958A958C958E120000
:1003200095909592959495969598959A959C959E6D
:100330001200906F8C908C928C948C968C988C9AE6
:100340008C9C8C9E90B18C8090B38C8290B58C8468
:1003500090B78C8690B98C8890BB8C8A90BD8C8C21
:1003600090BF8C8E1200906B83B0908183B290838B
:1003700083B4908583B6908783B8908983BA908B35
:1003800083BC908D83BE908F90511200010ECAECF9
:1003900001F01200D894010AD8A40DD0000E8D6F80
:1003A000FF0E8E6F4AEC01F0010E8D6FFF0E8E6F07
:1003B0004AEC01F01200000E8D6F000E8E6F4AECB9
:1003C00001F0010E8D6F000E8E6F4AEC01F01200ED
:1003D000916B926B120E8D6F56EC01F0916F130EB4
:1003E0008D6F56EC01F0926F1200120E8D6F9151CD
:1003F0008E6F4AEC01F0130E8D6F92518E6F4AECA6
:1004000001F01200949C948EAD6AAE6A810EAF6EBC
:10041000240EAC6EAC98AB8E12009EA8FED7AD6ECB
:1004200012009EAAFED7AE5012000D0E0DEC02F087
:100430000A0E0DEC02F01200F9262D0C2D0C2D0CDD
:100440002D0C2D0C2D0C2D0C2D0C2D0C2D0C2D0CE4
:100450002D0C2D0C2D0C2D0C2D0C2D0C2D0C2D0CD4
:100460002D0C2D0C2D0C2D0C2D0C2D0C2D0C2D0CC4
:100470002D0C2D0C2D0C2D0C2D0C2D0C2D0C2D0CB4
:100480002D0C2D0C2D0C2D0C2D0C2D0C2D0C2D0CA4
:100490000D0C0A0C540C650C730C740C200C4D0CD8
:1004A000650C730C730C610C670C650C0D0C0A0C5D
:1004B0002D0C2D0C2D0C2D0C2D0C2D0C2D0C2D0C74
:1004C0002D0C2D0C2D0C2D0C2D0C2D0C2D0C2D0C64
:1004D0002D0C2D0C2D0C2D0C2D0C2D0C2D0C2D0C54
:1004E0002D0C2D0C2D0C2D0C2D0C2D0C2D0C2D0C44
:1004F0002D0C2D0C2D0C2D0C2D0C2D0C2D0C2D0C34
:100500002D0C2D0C2D0C000C936F93A795EF02F082
:10051000080AD8B495EF02F000009351090AD8B444
:1005200095EF02F00000070E93279351300F0DEC6A
:1005300002F01200946F94390F0B84EC02F0945186
:100540000F0B84EC02F01200956F080E966F8096E8
:10055000370E22EC01F09543D8A0B1EF02F0B4EFD2
:1005600002F08096B5EF02F08086370E22EC01F0A3
:10057000962FABEF02F08086370E22EC01F01200CE
:10058000808692961200F33E41D300DB02CB5FCA15
:1005900005003E58D300DB02CB5FCA1000DB00D35E
:1005A00001CD2100C301000000000000C9000000CF
:1005B000000000000000000000000000000000003B
:1005C000000000000000000000000000000000002B
:1005D000000000000000000000000000000000001B
:1005E000000000000000000000000000000000000B
:1005F00000000000000000000000000000000000FB
:100600000000000000C90000000000000000000021
:1006100000000000000000000000000000000000DA
:1006200000000000000000000000000000000000CA
:1006300000000000000000000000000000000000BA
:1006400000000000000000000000000000000000AA
:10065000000000000000000000000000000000009A
:10066000000000000000000000000000000000008A
:10067000000000000000000000000000000000007A
:100680000000000000110000000000000000000059
:10069000000000000000000000000000000000005A
:1006A000000000000000000000000000000000004A
:1006B000000000000000000000000000000000003A
:1006C000000000000000000000000000000000002A
:1006D000000000000000000000000000000000001A
:1006E000000000000000000000000000000000000A
:1006F00000000000000000000000000000000000FA
:1007000000000000002200000000000000000000C7
:1007100000000000000000000000000000000000D9
:1007200000000000000000000000000000000000C9
:1007300000000000000000000000000000000000B9
:1007400000000000000000000000000000000000A9
:100750000000000000000000000000000000000099
:100760000000000000000000000000000000000089
:100770000000000000000000000000000000000079
:100780000000000000330000000000000000000036
:100790000000000000000000000000000000000059
:1007A0000000000000000000000000000000000049
:1007B0000000000000000000000000000000000039
:1007C0000000000000000000000000000000000029
:1007D0000000000000000000000000000000000019
:1007E0000000000000000000000000000000000009
:1007F00000000000000000000000000000000000F9
:1008000000000000004400000000000000000000A4
:1008100000000000000000000000000000000000D8
:1008200000000000000000000000000000000000C8
:1008300000000000000000000000000000000000B8
:1008400000000000000000000000000000000000A8
:100850000000000000000000000000000000000098
:100860000000000000000000000000000000000088
:100870000000000000000000000000000000000078
:100880000000000000550000000000000000000013
:100890000000000000000000000000000000000058
:1008A0000000000000000000000000000000000048
:1008B0000000000000000000000000000000000038
:1008C0000000000000000000000000000000000028
:1008D0000000000000000000000000000000000018
:1008E0000000000000000000000000000000000008
:1008F00000000000000000000000000000000000F8
:100900000000000000660000000000000000000081
:1009100000000000000000000000000000000000D7
:1009200000000000000000000000000000000000C7
:1009300000000000000000000000000000000000B7
:1009400000000000000000000000000000000000A7
:100950000000000000000000000000000000000097
:100960000000000000000000000000000000000087
:100970000000000000000000000000000000000077
:06098000000000000077FA
:020000040030CA
:0100010026D8
:010002000FEE
:010003000EEE
:0100050001F9
:010006008178
:010008000FE8
:01000900C036
:01000A000FE6
:01000B00E014
:01000C000FE4
:00000001FF
