:020000040000FA
:040000003EEF00F0DF
:020004000000FA
:0200080014D012
:08001800D8CF01F0E8CF00F0A1
:10002000E0CF02F002C0E0FF00C0E8FF01C0D8FF4F
:100030001000D8CF01F0E8CF00F0E0CF02F08A92B4
:100040009EBE01D014D001EC02F083CF06F08A8668
:100050004C0E26EC02F00650B3EC02F02EEC02F04F
:100060008651B3EC02F02EEC02F09E9E8A8202C012
:10007000E0FF00C0E8FF01C0D8FF1100DBEC00F09A
:100080008A98939893848A8293921BEC02F07BEC7B
:1000900001F0898A929A898092908A96939698EC38
:1000A00001F0DFEC01F011EC01F0000E866F000EA4
:1000B000876FF30EF6EC00F0010E866F000E876F6F
:1000C0003E0EF6EC00F0020E866F000E876F020EF9
:1000D000F6EC00F0030E866F000E876FD30EF6EC81
:1000E00000F0040E866F000E876F000EF6EC00F035
:1000F000050E866F000E876F000EF6EC00F0060E00
:10010000866F000E876F000EF6EC00F0070E866F0C
:10011000000E876F000EF6EC00F0080E866F000EE2
:10012000876F000EF6EC00F0090E866F000E876FE9
:10013000000EF6EC00F00A0E866F000E876F000EC0
:10014000F6EC00F00B0E866F000E876F000EF6ECDB
:1001500000F00C0E866F000E876F000EF6EC00F0BC
:100160000D0E866F000E876F000EF6EC00F00E0E7F
:10017000866F000E876FC30EF6EC00F00F0E866FD1
:10018000000E876F010EF6EC00F0100E866F000E69
:10019000876F000EF6EC00F01AEC01F026EC01F08F
:1001A00030EC01F08980FF0E46EC01F08990FF0EE3
:1001B00046EC01F0F7D7C26A0F0EC16EBD6ABA6A8B
:1001C0001200076A000EE3EC01F089860EEC02F0E3
:1001D000010E9DEC01F08984899289940000CCEC99
:1001E00001F0076E8984898207501200076E000EA5
:1001F000E3EC01F0000E9DEC01F00EEC02F0075074
:10020000B2EC01F0898489928996000089868982FE
:10021000866B876B0EEC02F01200898489828986D6
:1002200012008992929289949294899692960DECFA
:1002300001F01200928292849286010EE3EC01F0AA
:10024000010E9DEC01F00DEC01F012008A989398DC
:10025000320E46EC01F08A8881A4FED7000012001D
:10026000D09E968096829684968895689E9E9D8E56
:06027000F28CF28E120078
:0A027600806F00000000000000008F
:10028000000000000000802FF7D71200816F640E7D
:100290003BEC01F0640E3BEC01F0640E3BEC01F032
:1002A000640E3BEC01F0812F47EF01F01200899AB8
:1002B000400E87EC01F0000E87EC01F0000E87EC99
:1002C00001F0898A1200899A400E87EC01F0825170
:1002D00087EC01F0835187EC01F0898A1200899A3A
:1002E000410E87EC01F0825187EC01F0005087EC61
:1002F00001F0898A12009488949A9496C66AC96A11
:100300009E96C78CC79EC688C698C68A1200846F00
:10031000C69E8451C96E9EA6FED79E96C9501200F5
:100320009E96C950000EC96E9EA6FED7C9501200F7
:100330009698010E9DEC01F01200D894010A09E193
:1003400095809582958495869588958A958C958ECD
:10035000120095909592959495969598959A959C5E
:10036000959E1200856F8C908C928C948C968C98B4
:100370008C9A8C9C8C9E85B18C8085B38C8285B543
:100380008C8485B78C8685B98C8885BB8C8A85BD25
:100390008C8C85BF8C8E1200856B83B0858183B277
:1003A000858383B4858583B6858783B8858983BA39
:1003B000858B83BC858D83BE858F85511200010E90
:1003C000E3EC01F01200D894010AD8A40DD0000E7D
:1003D000826FFF0E836F63EC01F0010E826FFF0EE0
:1003E000836F63EC01F01200000E826F000E836FCA
:1003F00063EC01F0010E826F000E836F63EC01F07D
:100400001200866B876B120E826F6FEC01F0866FA5
:10041000130E826F6FEC01F0876F1200120E826F65
:100420008651836F63EC01F0130E826F8751836FE7
:1004300063EC01F01200949C948EAD6AAE6A810E5A
:10044000AF6E240EAC6EAC98AB8E12009EA8FED799
:10045000AD6E12009EAAFED7AE5012000D0E26EC15
:1004600002F00A0E26EC02F01200F9262D0C2D0CDB
:100470002D0C2D0C2D0C2D0C2D0C2D0C2D0C2D0CB4
:100480002D0C2D0C2D0C2D0C2D0C2D0C2D0C2D0CA4
:100490002D0C2D0C2D0C2D0C2D0C2D0C2D0C2D0C94
:1004A0002D0C2D0C2D0C2D0C2D0C2D0C2D0C2D0C84
:1004B0002D0C2D0C2D0C2D0C2D0C2D0C2D0C2D0C74
:1004C0002D0C0D0C0A0C540C650C730C740C200CC8
:1004D0004D0C650C730C730C610C670C650C0D0CEA
:1004E0000A0C2D0C2D0C2D0C2D0C2D0C2D0C2D0C67
:1004F0002D0C2D0C2D0C2D0C2D0C2D0C2D0C2D0C34
:100500002D0C2D0C2D0C2D0C2D0C2D0C2D0C2D0C23
:100510002D0C2D0C2D0C2D0C2D0C2D0C2D0C2D0C13
:100520002D0C2D0C2D0C2D0C2D0C2D0C2D0C2D0C03
:100530002D0C2D0C2D0C2D0C000C886F88A7AEEF08
:1005400002F0080AD8B4AEEF02F000008851090AA0
:10055000D8B4AEEF02F00000070E88278851300FA4
:1005600026EC02F01200896F89390F0B9DEC02F026
:1005700089510F0B9DEC02F012008A6F080E8B6FF1
:100580008096370E3BEC01F08A43D8A0CAEF02F008
:10059000CDEF02F08096CEEF02F08086370E3BEC76
:1005A00001F08B2FC4EF02F08086370E3BEC01F098
:0805B0001200808692961200F1
:020000040030CA
:0100010026D8
:010002000FEE
:010003000EEE
:0100050001F9
:010006008178
:010008000FE8
:01000900C036
:01000A000FE6
:01000B00E014
:01000C000FE4
:00000001FF
