:020000040000FA
:040000003EEF00F0DF
:020004000000FA
:040008008A9213D0F5
:08001800D8CF01F0E8CF00F0A1
:10002000E0CF02F002C0E0FF00C0E8FF01C0D8FF4F
:100030001000D8CF01F0E8CF00F0E0CF02F09EBE74
:1000400001D014D082B436EF00F0550E8C6EABECBC
:1000500001F083CF06F08A864C0E06505DEC02F06C
:1000600086515DEC02F0D8EC01F09E9E02C0E0FFEC
:1000700000C0E8FF01C0D8FF8A8211006EEC00F0DA
:100080008A98939893848A8293929484C5EC01F021
:1000900025EC01F0898A929A898092908A969396AB
:1000A00042EC01F089EC01F0A2EC00F0CEEC00F0A3
:1000B000ABEC00F0B7EC00F0C1EC00F0ABEC01F001
:1000C00086515DEC02F0D8EC01F08980FF0EF0EC77
:1000D00000F08990FF0EF0EC00F0F0D7C26A0F0E2E
:1000E000C16EBD6ABA6A8A8093901200076A000ED8
:1000F0008DEC01F08986B8EC01F0010E47EC01F0BF
:10010000898489928994000076EC01F0076E8984D5
:10011000898207501200076E000E8DEC01F0000E70
:1001200047EC01F0B8EC01F007505CEC01F0898479
:100130008992899600008986898212008984898241
:1001400089861200899292928994929489969296C5
:100150009EEC00F01200928292849286010E8DEC49
:1001600001F0010E47EC01F09EEC00F012008A98BD
:100170009398320EF0EC00F08A8881A4FED700003C
:100180001200D09E968096829684968895689E9E50
:100190009D8EF28CF28E8A908A821200000EF86E8A
:1001A000050EF76E0C0EF66E800EA66E866B876BD4
:1001B000090000000000F5508BEC00F0863FF8D7F6
:0A01C000872B8751040AF4E11200B6
:0601CA00806F0000000040
:1001D00000000000000000000000802FF7D7120090
:1001E000816F640EE5EC00F0640EE5EC00F0640E47
:1001F000E5EC00F0640EE5EC00F0812FF1EF00F08B
:100200001200899A400E31EC01F0000E31EC01F041
:10021000000E31EC01F0898A1200899A400E31EC0F
:1002200001F0825131EC01F0835131EC01F0898A07
:100230001200899A410E31EC01F0825131EC01F04B
:10024000005031EC01F0898A12009488949A9496B7
:10025000C66AC96A9E96C78CC79EC688C698C68A53
:100260001200846FC69E8451C96E9EA6FED79E96CC
:10027000C95012009E96C950000EC96E9EA6FED7A8
:10028000C95012009698010E47EC01F01200D89464
:10029000010A09E195809582958495869588958ACD
:1002A000958C958E1200959095929594959695982B
:1002B000959A959C959E1200856F8C908C928C944B
:1002C0008C968C988C9A8C9C8C9E85B18C8085B3F6
:1002D0008C8285B58C8485B78C8685B98C8885BBE6
:1002E0008C8A85BD8C8C85BF8C8E1200856B83B00B
:1002F000858183B2858383B4858583B6858783B8FA
:10030000858983BA858B83BC858D83BE858F855116
:100310001200010E8DEC01F01200D894010AD8A44D
:100320000DD0000E826FFF0E836F0DEC01F0010EF9
:10033000826FFF0E836F0DEC01F01200000E826FD2
:10034000000E836F0DEC01F0010E826F000E836FC3
:100350000DEC01F01200866B876B120E826F19ECA8
:1003600001F0866F130E826F19EC01F0876F120097
:10037000120E826F8651836F0DEC01F0130E826FA7
:100380008751836F0DEC01F01200949C948EAD6A3E
:10039000AE6A810EAF6E240EAC6EAC98AB8E1200BE
:1003A0009EA8FED7AD6E12009EAAFED7AE501200D8
:1003B0000D0ED0EC01F00A0ED0EC01F01200F9267F
:1003C0002D0C2D0C2D0C2D0C2D0C2D0C2D0C2D0C65
:1003D0002D0C2D0C2D0C2D0C2D0C2D0C2D0C2D0C55
:1003E0002D0C2D0C2D0C2D0C2D0C2D0C2D0C2D0C45
:1003F0002D0C2D0C2D0C2D0C2D0C2D0C2D0C2D0C35
:100400002D0C2D0C2D0C2D0C2D0C2D0C2D0C2D0C24
:100410002D0C2D0C2D0C0D0C0A0C540C650C730CB2
:10042000740C200C4D0C650C730C730C610C670C78
:10043000650C0D0C0A0C2D0C2D0C2D0C2D0C2D0CFF
:100440002D0C2D0C2D0C2D0C2D0C2D0C2D0C2D0CE4
:100450002D0C2D0C2D0C2D0C2D0C2D0C2D0C2D0CD4
:100460002D0C2D0C2D0C2D0C2D0C2D0C2D0C2D0CC4
:100470002D0C2D0C2D0C2D0C2D0C2D0C2D0C2D0CB4
:100480002D0C2D0C2D0C2D0C2D0C2D0C000C886F13
:1004900088A758EF02F0080AD8B458EF02F000001D
:1004A0008851090AD8B458EF02F00000070E8827D7
:1004B0008851300FD0EC01F01200896F89390F0B91
:1004C00047EC02F089510F0B47EC02F012008A6FE3
:1004D000080E8B6F8096370EE5EC00F08A43D8A0AB
:1004E00074EF02F077EF02F0809678EF02F08086EA
:1004F000370EE5EC00F08B2F6EEF02F08086370EA2
:10050000E5EC00F01200808692961200F33E05DBC7
:1005100000D301000000000000C301000000000043
:1005200000000000000000000000000000000000CB
:1005300000000000000000000000000000000000BB
:1005400000000000000000000000000000000000AB
:10055000000000000000000000000000000000009B
:10056000000000000000000000000000000000008B
:10057000000000000000000000000000000000007B
:10058000000000000000000000000000000000006B
:10059000000000000000000000000000000000005B
:1005A000000000000000000000000000000000004B
:1005B000000000000000000000000000000000003B
:1005C000000000000000000000000000000000002B
:1005D000000000000000000000000000000000001B
:1005E000000000000000000000000000000000000B
:1005F00000000000000000000000000000000000FB
:1006000000000000000000000000001100000000D9
:1006100000000000000000000000000000000000DA
:1006200000000000000000000000000000000000CA
:1006300000000000000000000000000000000000BA
:1006400000000000000000000000000000000000AA
:10065000000000000000000000000000000000009A
:10066000000000000000000000000000000000008A
:10067000000000000000000000000000000000007A
:100680000000000000000000000000220000000048
:10069000000000000000000000000000000000005A
:1006A000000000000000000000000000000000004A
:1006B000000000000000000000000000000000003A
:1006C000000000000000000000000000000000002A
:1006D000000000000000000000000000000000001A
:1006E000000000000000000000000000000000000A
:1006F00000000000000000000000000000000000FA
:1007000000000000000000000000003300000000B6
:1007100000000000000000000000000000000000D9
:1007200000000000000000000000000000000000C9
:1007300000000000000000000000000000000000B9
:1007400000000000000000000000000000000000A9
:100750000000000000000000000000000000000099
:100760000000000000000000000000000000000089
:100770000000000000000000000000000000000079
:100780000000000000000000000000440000000025
:100790000000000000000000000000000000000059
:1007A0000000000000000000000000000000000049
:1007B0000000000000000000000000000000000039
:1007C0000000000000000000000000000000000029
:1007D0000000000000000000000000000000000019
:1007E0000000000000000000000000000000000009
:1007F00000000000000000000000000000000000F9
:100800000000000000000000000000550000000093
:1008100000000000000000000000000000000000D8
:1008200000000000000000000000000000000000C8
:1008300000000000000000000000000000000000B8
:1008400000000000000000000000000000000000A8
:100850000000000000000000000000000000000098
:100860000000000000000000000000000000000088
:100870000000000000000000000000000000000078
:100880000000000000000000000000660000000002
:100890000000000000000000000000000000000058
:1008A0000000000000000000000000000000000048
:1008B0000000000000000000000000000000000038
:1008C0000000000000000000000000000000000028
:1008D0000000000000000000000000000000000018
:1008E0000000000000000000000000000000000008
:1008F00000000000000000000000000000000000F8
:0C09000000000000000000000000007774
:020000040030CA
:0100010026D8
:010002000FEE
:010003000EEE
:0100050001F9
:010006008178
:010008000FE8
:01000900C036
:01000A000FE6
:01000B00E014
:01000C000FE4
:00000001FF
