:020000040000FA
:040000001AEF00F003
:020004000000FA
:0200080014D012
:08001800D8CF01F0E8CF00F0A1
:10002000E0CF02F002C0E0FF00C0E8FF01C0D8FF4F
:100030001000110053EC00F06CEC01F0CDEC00F07E
:10004000898A929A89809290EAEC00F030EC01F073
:100050008AEC00F0010E866F000E876F5A0E6DEC71
:1000600000F0020E866F000E876F6B0E6DEC00F0D5
:10007000FF0E866FFF0E876F7C0E6DEC00F089809F
:10008000580E77EC01F0FF0E98EC00F0FF0E866F33
:10009000FF0E876F59EC00F07C0AF1E18990FF0EAA
:1000A00098EC00F0ECD7C26A0F0EC16EBD6ABA6A56
:1000B0001200046A000E34EC01F089865FEC01F056
:1000C000010EEEEC00F08984898289941DEC01F028
:1000D000046E8984899204501200046E000E34EC80
:1000E00001F0000EEEEC00F05FEC01F0045003ECC8
:1000F00001F0898489828996640E98EC00F08986E3
:100100008992866B876B5FEC01F01200898489927B
:1001100089861200899292928994929489969296F5
:0601200086EC00F0120065
:0A012600806F802F94EF00F01200AC
:10013000816F640E93EC00F0640E93EC00F0640E9B
:1001400093EC00F0640E93EC00F0812F99EF00F037
:100150001200899A400ED9EC00F0000ED9EC00F0A4
:10016000000ED9EC00F0898A1200899A400ED9EC71
:1001700000F08251D9EC00F08351D9EC00F0898A6B
:100180001200899A410ED9EC00F08251D9EC00F0AE
:100190000050D9EC00F0898A12009488949A9496C1
:1001A000C66AC96A9E96C78CC79EC688C698C68A04
:1001B0001200846FC69E8451C96E9EA6FED79E967D
:1001C000C95012009E96C950000EC96E9EA6FED759
:1001D000C9501200010EEEEC00F01200D894010A92
:1001E00009E1948094829484958095829584958683
:1001F00095881200949094929494959095929594E9
:10020000959695981200856F8B908B928B948C901D
:100210008C928C948C968C9885B18B8085B38B82D4
:1002200085B58B8485B78C8085B98C8285BB8C84A1
:1002300085BD8C8685BF8C881200856B82B08581D8
:1002400082B2858382B4858583B0858783B28589B0
:1002500083B4858B83B6858D83B8858F85511200D5
:10026000010E34EC01F01200D894010AD8A40DD08C
:10027000000E826FFF0E836FB5EC00F0010E826FEF
:10028000FF0E836FB5EC00F01200000E826F000EBF
:10029000836FB5EC00F0010E826F000E836FB5EC3A
:1002A00000F01200866B876B120E826FC1EC00F0BB
:1002B000866F130E826FC1EC00F0876F1200120E72
:1002C000826F8651836FB5EC00F0130E826F8751F9
:1002D000836FB5EC00F01200949C948EAD6AAE6A08
:1002E000400EAF6E240EAC6EAC98AB8E12009EA882
:1002F000FED7AD6E12009EAAFED7AE5012000D0EB4
:1003000077EC01F00A0E77EC01F01200F9262D0CC3
:100310002D0C2D0C2D0C2D0C2D0C2D0C2D0C2D0C15
:100320002D0C2D0C2D0C2D0C2D0C2D0C2D0C2D0C05
:100330002D0C2D0C2D0C2D0C2D0C2D0C2D0C2D0CF5
:100340002D0C2D0C2D0C2D0C2D0C2D0C2D0C2D0CE5
:100350002D0C2D0C2D0C2D0C2D0C2D0C2D0C2D0CD5
:100360002D0C2D0C0D0C0A0C540C650C730C740C1C
:10037000200C4D0C650C730C730C610C670C650C38
:100380000D0C0A0C2D0C2D0C2D0C2D0C2D0C2D0CE8
:100390002D0C2D0C2D0C2D0C2D0C2D0C2D0C2D0C95
:1003A0002D0C2D0C2D0C2D0C2D0C2D0C2D0C2D0C85
:1003B0002D0C2D0C2D0C2D0C2D0C2D0C2D0C2D0C75
:1003C0002D0C2D0C2D0C2D0C2D0C2D0C2D0C2D0C65
:1003D0002D0C2D0C2D0C2D0C2D0C000C886F88A7CE
:1003E000FFEF01F0080AD8B4FFEF01F000008851D8
:1003F000090AD8B4FFEF01F00000070E88278851E2
:10040000300F77EC01F01200896F080E8A6F80962A
:10041000370E93EC00F08943D8A011EF02F014EFEF
:1004200002F0809615EF02F08086370E93EC00F014
:100430008A2F0BEF02F08086370E93EC00F012004B
:0604400080869296120076
:020000040030CA
:0100010002FC
:010002000FEE
:010003000EEE
:0100050001F9
:010006008178
:010008000FE8
:01000900C036
:01000A000FE6
:01000B00E014
:01000C000FE4
:00000001FF
