:020000040000FA
:0400000054EF00F0C9
:020004000000FA
:0200080014D012
:08001800D8CF01F0E8CF00F0A1
:10002000E0CF02F002C0E0FF00C0E8FF01C0D8FF4F
:100030001000D8CF01F0E8CF00F0E0CF02F09EBE74
:1000400001D02BD08A8696AE14D008B425D008B241
:1000500010D0840EE96E8251E9268350EF6EE92AB2
:10006000822B969A08948251020AD8B40884088098
:1000700013D096BE11D08351000A0EE0880EE96EAF
:1000800083078351E926EFCF8CFF08948351000A40
:10009000D8A40884088200D09E9E02C0E0FF00C061
:1000A000E8FF01C0D8FF110078EC00F08A9893981F
:1000B00093848A8293929484F7EC01F057EC01F0D8
:1000C000898A929A899092908A96939674EC01F01C
:1000D000BBEC01F0C8EC00F0FFEC00F0D1EC00F05C
:1000E000DDEC00F0E7EC00F008B482EC00F0FCD7A7
:1000F000C26A0F0EC16EBD6ABA6A8A809390110EF1
:10010000D56E1200898008940890826B84518FEC20
:1001100002F085518FEC02F00AEC02F0846B856BE3
:10012000866B876B836B886B896B8A6B8B6B089292
:1001300012000892836B1200076A000EBFEC01F0F8
:100140008986EAEC01F0010E79EC01F0898489924C
:1001500089940000A8EC01F0076E89848982075019
:100160001200076E000EBFEC01F0000E79EC01F0FA
:10017000EAEC01F007508EEC01F0898489928996AF
:10018000000089868982120089848982898612000A
:10019000899292928994929489969296C4EC00F0F6
:1001A0001200928292849286010EBFEC01F0010E41
:1001B00079EC01F0C4EC00F012008A989398320EAA
:1001C00022EC01F08A8881A4FED700001200D09EA4
:1001D000968096829684968895689E9E9D8EF28CD7
:1001E000F28E8A908A82836B826B086A886B896B35
:1001F0008A6B8B6B846B856B866B876B1200000E32
:10020000F86E050EF76E700EF66E800EA66E916B90
:10021000926B090000000000F550B1EC00F0913F36
:0E022000F8D7922B9251040AF4E1120012005A
:02022E00806FDF
:100230000000000000000000000000000000802F0F
:10024000F7D71200816F640E17EC01F0640E17EC03
:1002500001F0640E17EC01F0640E17EC01F0812F31
:1002600023EF01F01200899A400E63EC01F0000EBA
:1002700063EC01F0000E63EC01F0898A1200899AA8
:10028000400E63EC01F08D5163EC01F08E5163EC94
:1002900001F0898A1200899A410E63EC01F08D51B8
:1002A00063EC01F0005063EC01F0898A120094883D
:1002B000949A9496C66AC96A9E96C78CC79EC68849
:1002C000C698C68A12008F6FC69E8F51C96E9EA6B1
:1002D000FED79E96C95012009E96C950000EC96E58
:1002E0009EA6FED7C95012009698010E79EC01F037
:1002F0001200D894010A09E195809582958495862B
:100300009588958A958C958E1200959095929594E6
:1003100095969598959A959C959E1200906F8C90C5
:100320008C928C948C968C988C9A8C9C8C9E90B190
:100330008C8090B38C8290B58C8490B78C8690B969
:100340008C8890BB8C8A90BD8C8C90BF8C8E120058
:10035000906B83B0908183B2908383B4908583B691
:10036000908783B8908983BA908B83BC908D83BE2D
:10037000908F90511200010EBFEC01F01200D89442
:10038000010AD8A40DD0000E8D6FFF0E8E6F3FECCA
:1003900001F0010E8D6FFF0E8E6F3FEC01F0120029
:1003A000000E8D6F000E8E6F3FEC01F0010E8D6F11
:1003B000000E8E6F3FEC01F01200916B926B120EEB
:1003C0008D6F4BEC01F0916F130E8D6F4BEC01F0C4
:1003D000926F1200120E8D6F91518E6F3FEC01F0F3
:1003E000130E8D6F92518E6F3FEC01F01200949CB2
:1003F000948EAD6AAE6A810EAF6E240EAC6EAC9870
:10040000AB8E12009EA8FED7AD6E12009EAAFED73C
:10041000AE5012000D0E02EC02F00A0E02EC02F0D9
:100420001200F9262D0C2D0C2D0C2D0C2D0C2D0C45
:100430002D0C2D0C2D0C2D0C2D0C2D0C2D0C2D0CF4
:100440002D0C2D0C2D0C2D0C2D0C2D0C2D0C2D0CE4
:100450002D0C2D0C2D0C2D0C2D0C2D0C2D0C2D0CD4
:100460002D0C2D0C2D0C2D0C2D0C2D0C2D0C2D0CC4
:100470002D0C2D0C2D0C2D0C2D0C0D0C0A0C540CD0
:10048000650C730C740C200C4D0C650C730C730C08
:10049000610C670C650C0D0C0A0C2D0C2D0C2D0C31
:1004A0002D0C2D0C2D0C2D0C2D0C2D0C2D0C2D0C84
:1004B0002D0C2D0C2D0C2D0C2D0C2D0C2D0C2D0C74
:1004C0002D0C2D0C2D0C2D0C2D0C2D0C2D0C2D0C64
:1004D0002D0C2D0C2D0C2D0C2D0C2D0C2D0C2D0C54
:1004E0002D0C2D0C2D0C2D0C2D0C2D0C2D0C2D0C44
:1004F000000C936F93A78AEF02F0080AD8B48AEF32
:1005000002F000009351090AD8B48AEF02F000000B
:10051000070E93279351300F02EC02F01200946FF4
:1005200094390F0B79EC02F094510F0B79EC02F037
:100530001200956F080E966F8096370E17EC01F03B
:100540009543D8A0A6EF02F0A9EF02F08096AAEF9B
:1005500002F08086370E17EC01F0962FA0EF02F024
:100560008086370E17EC01F01200808692961200FA
:10057000F33E57D3003EA8D30000DB00D3010000B8
:10058000C3010000000000000000000000000000A7
:10059000000000000000000000000000000000005B
:1005A000000000000000000000000000000000004B
:1005B000000000000000000000000000000000003B
:1005C000000000000000000000000000000000002B
:1005D000000000000000000000000000000000001B
:1005E000000000000000000000000000000000000B
:1005F00000000000000000000000000000000000FB
:1006000000000000000000000000000000000000EA
:1006100000000000000000000000000000000000DA
:1006200000000000000000000000000000000000CA
:1006300000000000000000000000000000000000BA
:1006400000000000000000000000000000000000AA
:10065000000000000000000000000000000000009A
:100660000000000000000000000000000000001179
:10067000000000000000000000000000000000007A
:10068000000000000000000000000000000000006A
:10069000000000000000000000000000000000005A
:1006A000000000000000000000000000000000004A
:1006B000000000000000000000000000000000003A
:1006C000000000000000000000000000000000002A
:1006D000000000000000000000000000000000001A
:1006E00000000000000000000000000000000022E8
:1006F00000000000000000000000000000000000FA
:1007000000000000000000000000000000000000E9
:1007100000000000000000000000000000000000D9
:1007200000000000000000000000000000000000C9
:1007300000000000000000000000000000000000B9
:1007400000000000000000000000000000000000A9
:100750000000000000000000000000000000000099
:100760000000000000000000000000000000003356
:100770000000000000000000000000000000000079
:100780000000000000000000000000000000000069
:100790000000000000000000000000000000000059
:1007A0000000000000000000000000000000000049
:1007B0000000000000000000000000000000000039
:1007C0000000000000000000000000000000000029
:1007D0000000000000000000000000000000000019
:1007E00000000000000000000000000000000044C5
:1007F00000000000000000000000000000000000F9
:1008000000000000000000000000000000000000E8
:1008100000000000000000000000000000000000D8
:1008200000000000000000000000000000000000C8
:1008300000000000000000000000000000000000B8
:1008400000000000000000000000000000000000A8
:100850000000000000000000000000000000000098
:100860000000000000000000000000000000005533
:100870000000000000000000000000000000000078
:100880000000000000000000000000000000000068
:100890000000000000000000000000000000000058
:1008A0000000000000000000000000000000000048
:1008B0000000000000000000000000000000000038
:1008C0000000000000000000000000000000000028
:1008D0000000000000000000000000000000000018
:1008E00000000000000000000000000000000066A2
:1008F00000000000000000000000000000000000F8
:1009000000000000000000000000000000000000E7
:1009100000000000000000000000000000000000D7
:1009200000000000000000000000000000000000C7
:1009300000000000000000000000000000000000B7
:1009400000000000000000000000000000000000A7
:100950000000000000000000000000000000000097
:100960000000000000000000000000000000007710
:020000040030CA
:0100010026D8
:010002000FEE
:010003000EEE
:0100050001F9
:010006008178
:010008000FE8
:01000900C036
:01000A000FE6
:01000B00E014
:01000C000FE4
:00000001FF
