:020000040000FA
:040000003EEF00F0DF
:020004000000FA
:040008008A9213D0F5
:08001800D8CF01F0E8CF00F0A1
:10002000E0CF02F002C0E0FF00C0E8FF01C0D8FF4F
:100030001000D8CF01F0E8CF00F0E0CF02F09EBE74
:1000400001D014D082B436EF00F0550E8C6EACECBB
:1000500001F083CF06F08A864C0E06505EEC02F06B
:1000600086515EEC02F0D9EC01F09E9E02C0E0FFEA
:1000700000C0E8FF01C0D8FF8A8211006EEC00F0DA
:100080008A98939893848A8293929484C6EC01F020
:1000900026EC01F0898A929A898092908A969396AA
:1000A00043EC01F08AEC01F0A2EC00F0CEEC00F0A1
:1000B000ABEC00F0B7EC00F0C1EC00F0ACEC01F000
:1000C00086515EEC02F0D9EC01F08980FF0EF1EC74
:1000D00000F08990FF0EF1EC00F0F0D7C26A0F0E2D
:1000E000C16EBD6ABA6A8A8093901200076A000ED8
:1000F0008EEC01F08986B9EC01F0010E48EC01F0BC
:10010000898489928994000077EC01F0076E8984D4
:10011000898207501200076E000E8EEC01F0000E6F
:1001200048EC01F0B9EC01F007505DEC01F0898476
:100130008992899600008986898212008984898241
:1001400089861200899292928994929489969296C5
:100150009EEC00F01200928292849286010E8EEC48
:1001600001F0010E48EC01F09EEC00F012008A98BC
:100170009398320EF1EC00F08A8881A4FED700003B
:100180001200D09E968096829684968895689E9E50
:100190009D8EF28CF28E8A908A821200000EF86E8A
:1001A000050EF76E0E0EF66E800EA66E866B876BD2
:1001B000090000000000F5508BEC00F0863FF8D7F6
:0C01C000872B8751040AF4E112001200A2
:0401CC00806F000040
:1001D000000000000000000000000000802FF7D7A2
:1001E0001200816F640EE6EC00F0640EE6EC00F0A5
:1001F000640EE6EC00F0640EE6EC00F0812FF2EF06
:1002000000F01200899A400E32EC01F0000E32EC40
:1002100001F0000E32EC01F0898A1200899A400E3A
:1002200032EC01F0825132EC01F0835132EC01F0FA
:10023000898A1200899A410E32EC01F0825132EC27
:1002400001F0005032EC01F0898A12009488949AEF
:100250009496C66AC96A9E96C78CC79EC688C69879
:10026000C68A1200846FC69E8451C96E9EA6FED7B0
:100270009E96C95012009E96C950000EC96E9EA649
:10028000FED7C95012009698010E48EC01F01200FA
:10029000D894010A09E19580958295849586958880
:1002A000958A958C958E1200959095929594959639
:1002B0009598959A959C959E1200856F8C908C923E
:1002C0008C948C968C988C9A8C9C8C9E85B18C800E
:1002D00085B38C8285B58C8485B78C8685B98C88EE
:1002E00085BB8C8A85BD8C8C85BF8C8E1200856BFE
:1002F00083B0858183B2858383B4858583B6858702
:1003000083B8858983BA858B83BC858D83BE858FB1
:1003100085511200010E8EEC01F01200D894010AF2
:10032000D8A40DD0000E826FFF0E836F0EEC01F08B
:10033000010E826FFF0E836F0EEC01F01200000EB3
:10034000826F000E836F0EEC01F0010E826F000EC3
:10035000836F0EEC01F01200866B876B120E826FBA
:100360001AEC01F0866F130E826F1AEC01F0876FA2
:100370001200120E826F8651836F0EEC01F0130E85
:10038000826F8751836F0EEC01F01200949C948E63
:10039000AD6AAE6A810EAF6E240EAC6EAC98AB8EB9
:1003A00012009EA8FED7AD6E12009EAAFED7AE50D8
:1003B00012000D0ED1EC01F00A0ED1EC01F012008A
:1003C000F9262D0C2D0C2D0C2D0C2D0C2D0C2D0C7F
:1003D0002D0C2D0C2D0C2D0C2D0C2D0C2D0C2D0C55
:1003E0002D0C2D0C2D0C2D0C2D0C2D0C2D0C2D0C45
:1003F0002D0C2D0C2D0C2D0C2D0C2D0C2D0C2D0C35
:100400002D0C2D0C2D0C2D0C2D0C2D0C2D0C2D0C24
:100410002D0C2D0C2D0C2D0C0D0C0A0C540C650CF8
:10042000730C740C200C4D0C650C730C730C610C6C
:10043000670C650C0D0C0A0C2D0C2D0C2D0C2D0CC5
:100440002D0C2D0C2D0C2D0C2D0C2D0C2D0C2D0CE4
:100450002D0C2D0C2D0C2D0C2D0C2D0C2D0C2D0CD4
:100460002D0C2D0C2D0C2D0C2D0C2D0C2D0C2D0CC4
:100470002D0C2D0C2D0C2D0C2D0C2D0C2D0C2D0CB4
:100480002D0C2D0C2D0C2D0C2D0C2D0C2D0C000CD1
:10049000886F88A759EF02F0080AD8B459EF02F024
:1004A00000008851090AD8B459EF02F00000070E85
:1004B00088278851300FD1EC01F01200896F8939FB
:1004C0000F0B48EC02F089510F0B48EC02F01200C0
:1004D0008A6F080E8B6F8096370EE6EC00F08A4329
:1004E000D8A075EF02F078EF02F0809679EF02F075
:1004F0008086370EE6EC00F08B2F6FEF02F08086DF
:10050000370EE6EC00F01200808692961200F33E61
:1005100005DB00D301000000000000C30100000063
:1005200000000000000000000000000000000000CB
:1005300000000000000000000000000000000000BB
:1005400000000000000000000000000000000000AB
:10055000000000000000000000000000000000009B
:10056000000000000000000000000000000000008B
:10057000000000000000000000000000000000007B
:10058000000000000000000000000000000000006B
:10059000000000000000000000000000000000005B
:1005A000000000000000000000000000000000004B
:1005B000000000000000000000000000000000003B
:1005C000000000000000000000000000000000002B
:1005D000000000000000000000000000000000001B
:1005E000000000000000000000000000000000000B
:1005F00000000000000000000000000000000000FB
:1006000000000000000000000000000000110000D9
:1006100000000000000000000000000000000000DA
:1006200000000000000000000000000000000000CA
:1006300000000000000000000000000000000000BA
:1006400000000000000000000000000000000000AA
:10065000000000000000000000000000000000009A
:10066000000000000000000000000000000000008A
:10067000000000000000000000000000000000007A
:100680000000000000000000000000000022000048
:10069000000000000000000000000000000000005A
:1006A000000000000000000000000000000000004A
:1006B000000000000000000000000000000000003A
:1006C000000000000000000000000000000000002A
:1006D000000000000000000000000000000000001A
:1006E000000000000000000000000000000000000A
:1006F00000000000000000000000000000000000FA
:1007000000000000000000000000000000330000B6
:1007100000000000000000000000000000000000D9
:1007200000000000000000000000000000000000C9
:1007300000000000000000000000000000000000B9
:1007400000000000000000000000000000000000A9
:100750000000000000000000000000000000000099
:100760000000000000000000000000000000000089
:100770000000000000000000000000000000000079
:100780000000000000000000000000000044000025
:100790000000000000000000000000000000000059
:1007A0000000000000000000000000000000000049
:1007B0000000000000000000000000000000000039
:1007C0000000000000000000000000000000000029
:1007D0000000000000000000000000000000000019
:1007E0000000000000000000000000000000000009
:1007F00000000000000000000000000000000000F9
:100800000000000000000000000000000055000093
:1008100000000000000000000000000000000000D8
:1008200000000000000000000000000000000000C8
:1008300000000000000000000000000000000000B8
:1008400000000000000000000000000000000000A8
:100850000000000000000000000000000000000098
:100860000000000000000000000000000000000088
:100870000000000000000000000000000000000078
:100880000000000000000000000000000066000002
:100890000000000000000000000000000000000058
:1008A0000000000000000000000000000000000048
:1008B0000000000000000000000000000000000038
:1008C0000000000000000000000000000000000028
:1008D0000000000000000000000000000000000018
:1008E0000000000000000000000000000000000008
:1008F00000000000000000000000000000000000F8
:0E090000000000000000000000000000007772
:020000040030CA
:0100010026D8
:010002000FEE
:010003000EEE
:0100050001F9
:010006008178
:010008000FE8
:01000900C036
:01000A000FE6
:01000B00E014
:01000C000FE4
:00000001FF
