:020000040000FA
:0400000047EF00F0D6
:020004000000FA
:0200080014D012
:08001800D8CF01F0E8CF00F0A1
:10002000E0CF02F002C0E0FF00C0E8FF01C0D8FF4F
:100030001000D8CF01F0E8CF00F0E0CF02F09EBE74
:1000400001D01ED08A8696AE11D008B418D0840E86
:10005000E96E8251E9268350EF6EE92A822B969A47
:100060008251020AD8B40884088009D096BE07D00D
:100070008351000A04E083078351088200D09E9ECA
:1000800002C0E0FF00C0E8FF01C0D8FF11006BEC28
:1000900000F08A98939893848A8293929484E3ECF4
:1000A00001F043EC01F0898A929A899092908A96A5
:1000B000939660EC01F0A7EC01F0B4EC00F0EBECEF
:1000C00000F0BDEC00F0C9EC00F0D3EC00F008B497
:1000D00075EC00F0FCD7C26A0F0EC16EBD6ABA6A39
:1000E0008A809390110ED56E120089800894089032
:1000F000826B110E886F550E896F020E836F8451CB
:100100007BEC02F085517BEC02F0F6EC01F0120082
:10011000076A000EABEC01F08986D6EC01F0010E07
:1001200065EC01F0898489928994000094EC01F0D7
:10013000076E8984898207501200076E000EABECAF
:1001400001F0000E65EC01F0D6EC01F007507AECFE
:1001500001F089848992899600008986898212003B
:1001600089848982898612008992929289949294D4
:1001700089969296B0EC00F0120092829284928658
:10018000010EABEC01F0010E65EC01F0B0EC00F0FB
:1001900012008A989398320E0EEC01F08A8881A49E
:1001A000FED700001200D09E968096829684968894
:1001B00095689E9E9D8EF28CF28E8A908A82836BC9
:1001C000826B086A886B896B8A6B8B6B846B856B1F
:1001D000866B876B1200000EF86E050EF76E480EE8
:1001E000F66E800EA66E916B926B09000000000007
:1001F000F5509DEC00F0913FF8D7922B9251040AF4
:06020000F4E112001200FF
:0A020600806F0000000000000000FF
:10021000000000000000802FF7D71200816F640EED
:1002200003EC01F0640E03EC01F0640E03EC01F04A
:10023000640E03EC01F0812F0FEF01F01200899A98
:10024000400E4FEC01F0000E4FEC01F0000E4FECB1
:1002500001F0898A1200899A400E4FEC01F08D510D
:100260004FEC01F08E514FEC01F0898A1200899A0F
:10027000410E4FEC01F08D514FEC01F000504FEC6E
:1002800001F0898A12009488949A9496C66AC96A81
:100290009E96C78CC79EC688C698C68A12008F6F66
:1002A000C69E8F51C96E9EA6FED79E96C95012005B
:1002B0009E96C950000EC96E9EA6FED7C950120068
:1002C0009698010E65EC01F01200D894010A09E13C
:1002D00095809582958495869588958A958C958E3E
:1002E000120095909592959495969598959A959CCF
:1002F000959E1200906F8C908C928C948C968C981A
:100300008C9A8C9C8C9E90B18C8090B38C8290B592
:100310008C8490B78C8690B98C8890BB8C8A90BD69
:100320008C8C90BF8C8E1200906B83B0908183B2C6
:10033000908383B4908583B6908783B8908983BA7D
:10034000908B83BC908D83BE908F90511200010ED4
:10035000ABEC01F01200D894010AD8A40DD0000E25
:100360008D6FFF0E8E6F2BEC01F0010E8D6FFF0E67
:100370008E6F2BEC01F01200000E8D6F000E8E6F51
:100380002BEC01F0010E8D6F000E8E6F2BEC01F047
:100390001200916B926B120E8D6F37EC01F0916F22
:1003A000130E8D6F37EC01F0926F1200120E8D6FED
:1003B00091518E6F2BEC01F0130E8D6F92518E6F59
:1003C0002BEC01F01200949C948EAD6AAE6A810E03
:1003D000AF6E240EAC6EAC98AB8E12009EA8FED70A
:1003E000AD6E12009EAAFED7AE5012000D0EEEECBE
:1003F00001F00A0EEEEC01F01200F9262D0C2D0C86
:100400002D0C2D0C2D0C2D0C2D0C2D0C2D0C2D0C24
:100410002D0C2D0C2D0C2D0C2D0C2D0C2D0C2D0C14
:100420002D0C2D0C2D0C2D0C2D0C2D0C2D0C2D0C04
:100430002D0C2D0C2D0C2D0C2D0C2D0C2D0C2D0CF4
:100440002D0C2D0C2D0C2D0C2D0C2D0C2D0C2D0CE4
:100450002D0C0D0C0A0C540C650C730C740C200C38
:100460004D0C650C730C730C610C670C650C0D0C5A
:100470000A0C2D0C2D0C2D0C2D0C2D0C2D0C2D0CD7
:100480002D0C2D0C2D0C2D0C2D0C2D0C2D0C2D0CA4
:100490002D0C2D0C2D0C2D0C2D0C2D0C2D0C2D0C94
:1004A0002D0C2D0C2D0C2D0C2D0C2D0C2D0C2D0C84
:1004B0002D0C2D0C2D0C2D0C2D0C2D0C2D0C2D0C74
:1004C0002D0C2D0C2D0C2D0C000C936F93A776EF9B
:1004D00002F0080AD8B476EF02F000009351090A3E
:1004E000D8B476EF02F00000070E93279351300F37
:1004F000EEEC01F01200946F94390F0B65EC02F0F2
:1005000094510F0B65EC02F01200956F080E966F78
:100510008096370E03EC01F09543D8A092EF02F0DD
:1005200095EF02F0809696EF02F08086370E03EC8E
:1005300001F0962F8CEF02F08086370E03EC01F06D
:100540001200808692961200F33E57D3003EA8D345
:100550000000DB00D3010000C30100000000000028
:10056000000000000000000000000000000000008B
:10057000000000000000000000000000000000007B
:10058000000000000000000000000000000000006B
:10059000000000000000000000000000000000005B
:1005A000000000000000000000000000000000004B
:1005B000000000000000000000000000000000003B
:1005C000000000000000000000000000000000002B
:1005D000000000000000000000000000000000001B
:1005E000000000000000000000000000000000000B
:1005F00000000000000000000000000000000000FB
:1006000000000000000000000000000000000000EA
:1006100000000000000000000000000000000000DA
:1006200000000000000000000000000000000000CA
:1006300000000000000000000000000000000000BA
:100640000000000000000011000000000000000099
:10065000000000000000000000000000000000009A
:10066000000000000000000000000000000000008A
:10067000000000000000000000000000000000007A
:10068000000000000000000000000000000000006A
:10069000000000000000000000000000000000005A
:1006A000000000000000000000000000000000004A
:1006B000000000000000000000000000000000003A
:1006C0000000000000000022000000000000000008
:1006D000000000000000000000000000000000001A
:1006E000000000000000000000000000000000000A
:1006F00000000000000000000000000000000000FA
:1007000000000000000000000000000000000000E9
:1007100000000000000000000000000000000000D9
:1007200000000000000000000000000000000000C9
:1007300000000000000000000000000000000000B9
:100740000000000000000033000000000000000076
:100750000000000000000000000000000000000099
:100760000000000000000000000000000000000089
:100770000000000000000000000000000000000079
:100780000000000000000000000000000000000069
:100790000000000000000000000000000000000059
:1007A0000000000000000000000000000000000049
:1007B0000000000000000000000000000000000039
:1007C00000000000000000440000000000000000E5
:1007D0000000000000000000000000000000000019
:1007E0000000000000000000000000000000000009
:1007F00000000000000000000000000000000000F9
:1008000000000000000000000000000000000000E8
:1008100000000000000000000000000000000000D8
:1008200000000000000000000000000000000000C8
:1008300000000000000000000000000000000000B8
:100840000000000000000055000000000000000053
:100850000000000000000000000000000000000098
:100860000000000000000000000000000000000088
:100870000000000000000000000000000000000078
:100880000000000000000000000000000000000068
:100890000000000000000000000000000000000058
:1008A0000000000000000000000000000000000048
:1008B0000000000000000000000000000000000038
:1008C00000000000000000660000000000000000C2
:1008D0000000000000000000000000000000000018
:1008E0000000000000000000000000000000000008
:1008F00000000000000000000000000000000000F8
:1009000000000000000000000000000000000000E7
:1009100000000000000000000000000000000000D7
:1009200000000000000000000000000000000000C7
:1009300000000000000000000000000000000000B7
:08094000000000000000007738
:020000040030CA
:0100010026D8
:010002000FEE
:010003000EEE
:0100050001F9
:010006008178
:010008000FE8
:01000900C036
:01000A000FE6
:01000B00E014
:01000C000FE4
:00000001FF
