:020000040000FA
:040000001AEF00F003
:020004000000FA
:0200080014D012
:08001800D8CF01F0E8CF00F0A1
:10002000E0CF02F002C0E0FF00C0E8FF01C0D8FF4F
:100030001000110048EC00F050EC00F06EEC01F004
:10004000898A929A898092908992929289949294C4
:10005000899692968BEC01F0D1EC01F030EC01F036
:10006000AC0E866F1F0E876F5D0E17EC01F0898056
:10007000FF0E39EC01F0AC0E866F1F0E876F03EC9C
:1000800001F05D0AF4E18990FF0E39EC01F0EFD741
:10009000C26A0F0EC16EBD6ABA6A8086929612005D
:1000A000949CAD6AAE6A400EAF6E240EAC6EAC98F6
:1000B000AB8E12009EA8FED7AD6E12009EAAFED790
:1000C000AE5012000D0E5AEC00F00A0E5AEC00F081
:1000D0001200F9262D0C2D0C2D0C2D0C2D0C2D0C99
:1000E0002D0C2D0C2D0C2D0C2D0C2D0C2D0C2D0C48
:1000F0002D0C2D0C2D0C2D0C2D0C2D0C2D0C2D0C38
:100100002D0C2D0C2D0C2D0C2D0C2D0C2D0C2D0C27
:100110002D0C2D0C2D0C2D0C2D0C2D0C2D0C2D0C17
:100120002D0C2D0C2D0C2D0C2D0C0D0C0A0C540C23
:10013000650C730C740C200C4D0C650C730C730C5B
:10014000610C670C650C0D0C0A0C2D0C2D0C2D0C84
:100150002D0C2D0C2D0C2D0C2D0C2D0C2D0C2D0CD7
:100160002D0C2D0C2D0C2D0C2D0C2D0C2D0C2D0CC7
:100170002D0C2D0C2D0C2D0C2D0C2D0C2D0C2D0CB7
:100180002D0C2D0C2D0C2D0C2D0C2D0C2D0C2D0CA7
:100190002D0C2D0C2D0C2D0C2D0C2D0C2D0C2D0C97
:1001A000000C036E03A6E2EF00F0080AD8B4E2EFF9
:1001B00000F000000350090AD8B4E2EF00F000009C
:1001C000070E03260350300F5AEC00F01200056EA4
:1001D000080E066E8096370E34EC01F00542D8A06A
:1001E000F4EF00F0F7EF00F08096F8EF00F0808673
:1001F000370E34EC01F0062EEEEF00F08086370E5D
:1002000034EC01F01200046A000ED5EC01F089868E
:1002100000EC02F0010E8FEC01F089848982899450
:10022000BEEC01F0046E8984899204501200046EC1
:10023000000ED5EC01F0000E8FEC01F000EC02F0A6
:100240000450A4EC01F0898489828996640E39EC0B
:1002500001F089868992866B876B00EC02F01200B0
:0802600089848992898612004D
:08026800806F802F35EF01F0DB
:100270001200816F640E34EC01F0640E34EC01F076
:10028000640E34EC01F0640E34EC01F0812F3AEF8F
:1002900001F01200899A400E7AEC01F0000E7AEC1F
:1002A00001F0000E7AEC01F0898A1200899A400E62
:1002B0007AEC01F082517AEC01F083517AEC01F092
:1002C000898A1200899A410E7AEC01F082517AEC07
:1002D00001F000507AEC01F0898A12009488949A17
:1002E0009496C66AC96A9E96C78CC79EC688C698E9
:1002F000C68A1200846FC69E8451C96E9EA6FED720
:100300009E96C95012009E96C950000EC96E9EA6B8
:10031000FED7C9501200010E8FEC01F01200D894E4
:10032000010A09E194809482948495809582958451
:1003300095869588120094909492949495909592B5
:100340009594959695981200856F8B908B928B94CF
:100350008C908C928C948C968C9885B18B8085B384
:100360008B8285B58B8485B78C8085B98C8285BB63
:100370008C8485BD8C8685BF8C881200856B82B08D
:10038000858182B2858382B4858583B0858783B277
:10039000858983B4858B83B6858D83B8858F855198
:1003A0001200010ED5EC01F01200D894010AD8A475
:1003B0000DD0000E826FFF0E836F56EC01F0010E20
:1003C000826FFF0E836F56EC01F01200000E826FF9
:1003D000000E836F56EC01F0010E826F000E836FEA
:1003E00056EC01F01200866B876B120E826F62EC86
:1003F00001F0866F130E826F62EC01F0876F1200BE
:10040000120E826F8651836F56EC01F0130E826FCD
:0A0410008751836F56EC01F01200D3
:020000040030CA
:0100010002FC
:010002000FEE
:010003000EEE
:0100050001F9
:010006008178
:010008000FE8
:01000900C036
:01000A000FE6
:01000B00E014
:01000C000FE4
:00000001FF
