:020000040000FA
:0400000057EF00F0C6
:020004000000FA
:0200080014D012
:08001800D8CF01F0E8CF00F0A1
:10002000E0CF02F002C0E0FF00C0E8FF01C0D8FF4F
:100030001000D8CF01F0E8CF00F0E0CF02F09EBE74
:1000400001D02ED08A8696AE16D008B427D008A04C
:1000500025D008B210D0EA6A840EE96E8251E926F2
:100060008350EF6E822B969A08948251020AD8B47C
:100070000884088013D096BE11D008B40FD008A20F
:100080000DD008B00BD08351000A08E0880EE96E4D
:1000900083078351E926EFCF8CFF00D0969A9E9E6E
:1000A00002C0E0FF00C0E8FF01C0D8FF11007FECF4
:1000B00000F08A98939893848A829392948407ECB0
:1000C00002F067EC01F0898A929A899092908A9660
:1000D000939684EC01F0CBEC01F0D8EC00F00FEC3F
:1000E00001F0E1EC00F0EDEC00F0F7EC00F008803E
:1000F00008B489EC00F008B2A3EC00F0F9D7C26AAA
:100100000F0EC16EBD6ABA6A8A809390110ED56EC9
:100110001200898008940880826BF29E84519FECC3
:1001200002F085519FEC02F01AEC02F0F28E846B23
:10013000856B866B876B020E836F230E886F340E80
:10014000896F088212000892836B886B896B8A6BB7
:100150008B6B089208801200076A000ECFEC01F04A
:100160008986FAEC01F0010E89EC01F0898489920C
:1001700089940000B8EC01F0076E898489820750E9
:100180001200076E000ECFEC01F0000E89EC01F0BA
:10019000FAEC01F007509EEC01F08984899289966F
:1001A00000008986898212008984898289861200EA
:1001B000899292928994929489969296D4EC00F0C6
:1001C0001200928292849286010ECFEC01F0010E11
:1001D00089EC01F0D4EC00F012008A989398320E6A
:1001E00032EC01F08A8881A4FED700001200D09E74
:1001F000968096829684968895689E9E9D8EF28CB7
:10020000F28E8A908A82836B826B086A886B896B14
:100210008A6B8B6B846B856B866B876B1200000E11
:10022000F86E050EF76E900EF66E800EA66E916B50
:10023000926B090000000000F550C1EC00F0913F06
:0E024000F8D7922B9251040AF4E1120012003A
:02024E00806FBF
:100250000000000000000000000000000000802FEF
:10026000F7D71200816F640E27EC01F0640E27ECC3
:1002700001F0640E27EC01F0640E27EC01F0812FF1
:1002800033EF01F01200899A400E73EC01F0000E7A
:1002900073EC01F0000E73EC01F0898A1200899A68
:1002A000400E73EC01F08D5173EC01F08E5173EC44
:1002B00001F0898A1200899A410E73EC01F08D5188
:1002C00073EC01F0005073EC01F0898A12009488FD
:1002D000949A9496C66AC96A9E96C78CC79EC68829
:1002E000C698C68A12008F6FC69E8F51C96E9EA691
:1002F000FED79E96C95012009E96C950000EC96E38
:100300009EA6FED7C95012009698010E89EC01F006
:100310001200D894010A09E195809582958495860A
:100320009588958A958C958E1200959095929594C6
:1003300095969598959A959C959E1200906F8C90A5
:100340008C928C948C968C988C9A8C9C8C9E90B170
:100350008C8090B38C8290B58C8490B78C8690B949
:100360008C8890BB8C8A90BD8C8C90BF8C8E120038
:10037000906B83B0908183B2908383B4908583B671
:10038000908783B8908983BA908B83BC908D83BE0D
:10039000908F90511200010ECFEC01F01200D89412
:1003A000010AD8A40DD0000E8D6FFF0E8E6F4FEC9A
:1003B00001F0010E8D6FFF0E8E6F4FEC01F01200F9
:1003C000000E8D6F000E8E6F4FEC01F0010E8D6FE1
:1003D000000E8E6F4FEC01F01200916B926B120EBB
:1003E0008D6F5BEC01F0916F130E8D6F5BEC01F084
:1003F000926F1200120E8D6F91518E6F4FEC01F0C3
:10040000130E8D6F92518E6F4FEC01F01200949C81
:10041000948EAD6AAE6A810EAF6E240EAC6EAC984F
:10042000AB8E12009EA8FED7AD6E12009EAAFED71C
:10043000AE5012000D0E12EC02F00A0E12EC02F099
:100440001200F9262D0C2D0C2D0C2D0C2D0C2D0C25
:100450002D0C2D0C2D0C2D0C2D0C2D0C2D0C2D0CD4
:100460002D0C2D0C2D0C2D0C2D0C2D0C2D0C2D0CC4
:100470002D0C2D0C2D0C2D0C2D0C2D0C2D0C2D0CB4
:100480002D0C2D0C2D0C2D0C2D0C2D0C2D0C2D0CA4
:100490002D0C2D0C2D0C2D0C2D0C0D0C0A0C540CB0
:1004A000650C730C740C200C4D0C650C730C730CE8
:1004B000610C670C650C0D0C0A0C2D0C2D0C2D0C11
:1004C0002D0C2D0C2D0C2D0C2D0C2D0C2D0C2D0C64
:1004D0002D0C2D0C2D0C2D0C2D0C2D0C2D0C2D0C54
:1004E0002D0C2D0C2D0C2D0C2D0C2D0C2D0C2D0C44
:1004F0002D0C2D0C2D0C2D0C2D0C2D0C2D0C2D0C34
:100500002D0C2D0C2D0C2D0C2D0C2D0C2D0C2D0C23
:10051000000C936F93A79AEF02F0080AD8B49AEFF1
:1005200002F000009351090AD8B49AEF02F00000DB
:10053000070E93279351300F12EC02F01200946FC4
:1005400094390F0B89EC02F094510F0B89EC02F0F7
:100550001200956F080E966F8096370E27EC01F00B
:100560009543D8A0B6EF02F0B9EF02F08096BAEF4B
:1005700002F08086370E27EC01F0962FB0EF02F0E4
:100580008086370E27EC01F01200808692961200CA
:10059000F33E57D300003EA8D3000000D301000073
:1005A000C301000000000000000000000000000087
:1005B000000000000000000000000000000000003B
:1005C000000000000000000000000000000000002B
:1005D000000000000000000000000000000000001B
:1005E000000000000000000000000000000000000B
:1005F00000000000000000000000000000000000FB
:1006000000000000000000000000000000000000EA
:1006100000000000000000000000000000000000DA
:1006200000000000000000000000000000000000CA
:1006300000000000000000000000000000000000BA
:1006400000000000000000000000000000000000AA
:10065000000000000000000000000000000000009A
:10066000000000000000000000000000000000008A
:10067000000000000000000000000000000000007A
:100680000000000000000000000000000000001159
:10069000000000000000000000000000000000005A
:1006A000000000000000000000000000000000004A
:1006B000000000000000000000000000000000003A
:1006C000000000000000000000000000000000002A
:1006D000000000000000000000000000000000001A
:1006E000000000000000000000000000000000000A
:1006F00000000000000000000000000000000000FA
:1007000000000000000000000000000000000022C7
:1007100000000000000000000000000000000000D9
:1007200000000000000000000000000000000000C9
:1007300000000000000000000000000000000000B9
:1007400000000000000000000000000000000000A9
:100750000000000000000000000000000000000099
:100760000000000000000000000000000000000089
:100770000000000000000000000000000000000079
:100780000000000000000000000000000000003336
:100790000000000000000000000000000000000059
:1007A0000000000000000000000000000000000049
:1007B0000000000000000000000000000000000039
:1007C0000000000000000000000000000000000029
:1007D0000000000000000000000000000000000019
:1007E0000000000000000000000000000000000009
:1007F00000000000000000000000000000000000F9
:1008000000000000000000000000000000000044A4
:1008100000000000000000000000000000000000D8
:1008200000000000000000000000000000000000C8
:1008300000000000000000000000000000000000B8
:1008400000000000000000000000000000000000A8
:100850000000000000000000000000000000000098
:100860000000000000000000000000000000000088
:100870000000000000000000000000000000000078
:100880000000000000000000000000000000005513
:100890000000000000000000000000000000000058
:1008A0000000000000000000000000000000000048
:1008B0000000000000000000000000000000000038
:1008C0000000000000000000000000000000000028
:1008D0000000000000000000000000000000000018
:1008E0000000000000000000000000000000000008
:1008F00000000000000000000000000000000000F8
:100900000000000000000000000000000000006681
:1009100000000000000000000000000000000000D7
:1009200000000000000000000000000000000000C7
:1009300000000000000000000000000000000000B7
:1009400000000000000000000000000000000000A7
:100950000000000000000000000000000000000097
:100960000000000000000000000000000000000087
:100970000000000000000000000000000000000077
:1009800000000000000000000000000000000077F0
:020000040030CA
:0100010026D8
:010002000FEE
:010003000EEE
:0100050001F9
:010006008178
:010008000FE8
:01000900C036
:01000A000FE6
:01000B00E014
:01000C000FE4
:00000001FF
