:020000040000FA
:040000003BEF00F0E2
:020004000000FA
:0200080014D012
:08001800D8CF01F0E8CF00F0A1
:10002000E0CF02F002C0E0FF00C0E8FF01C0D8FF4F
:100030001000D8CF01F0E8CF00F0E0CF02F08A92B4
:100040009EBE01D011D0F8EC01F083CF06F08A8675
:100050000650AAEC02F025EC02F08651AAEC02F060
:1000600025EC02F09E9E8A8202C0E0FF00C0E8FFFD
:1000700001C0D8FF1100D8EC00F08A9893989384BF
:100080008A82939212EC02F072EC01F0898A929AC1
:10009000898092908A9693968FEC01F0D6EC01F0CD
:1000A0000DEC01F0000E866F000E876FF30EF3EC7F
:1000B00000F0010E866F000E876F3E0EF3EC00F02D
:1000C000020E866F000E876F030EF3EC00F0030E36
:1000D000866F000E876FD30EF3EC00F0040E866F70
:1000E000000E876F000EF3EC00F0050E866F000E19
:1000F000876F000EF3EC00F0060E866F000E876F20
:10010000000EF3EC00F0070E866F000E876F000EF6
:10011000F3EC00F0080E866F000E876F000EF3EC14
:1001200000F0090E866F000E876F000EF3EC00F0F2
:100130000A0E866F000E876F000EF3EC00F00B0EB8
:10014000866F000E876F000EF3EC00F00C0E866FCA
:10015000000E876F000EF3EC00F00D0E866F000EA0
:10016000876F000EF3EC00F00E0E866F000E876FA7
:10017000C30EF3EC00F00F0E866F000E876F010EBA
:10018000F3EC00F0100E866F000E876F000EF3EC9C
:1001900000F016EC01F022EC01F02CEC01F089806B
:1001A000FF0E3DEC01F08990FF0E3DEC01F0F7D71A
:1001B000C26A0F0EC16EBD6ABA6A1200076A000EEB
:1001C000DAEC01F0898605EC02F0010E94EC01F006
:1001D0008984899289940000C3EC01F0076E8984B8
:1001E000898207501200076E000EDAEC01F0000E53
:1001F00094EC01F005EC02F00750A9EC01F08984C1
:100200008992899689868982866B876B05EC02F0D4
:100210001200898489828986120089929292899437
:1002200092948996929609EC01F01200928292843F
:100230009286010EDAEC01F0010E94EC01F009EC6B
:1002400001F012008A989398320E3DEC01F08A88F2
:1002500081A4FED700001200D09E968096829684DC
:0E026000968895689E9E9D8EF28CF28E1200FE
:02026E00806F9F
:1002700000000000802FFCD71200816F640E37EC65
:1002800001F0640E37EC01F0640E37EC01F0640EFF
:1002900037EC01F0812F3EEF01F01200899A400EF9
:1002A0007EEC01F0000E7EEC01F0000E7EEC01F021
:1002B000898A1200899A400E7EEC01F082517EEC10
:1002C00001F083517EEC01F0898A1200899A410E77
:1002D0007EEC01F082517EEC01F000507EEC01F0EA
:1002E000898A12009488949A9496C66AC96A9E96DE
:1002F000C78CC79EC688C698C68A1200846FC69EE1
:100300008451C96E9EA6FED79E96C95012009E9635
:10031000C950000EC96E9EA6FED7C950120096980D
:10032000010E94EC01F01200D894010A09E19580C5
:100330009582958495869588958A958C958E1200E0
:1003400095909592959495969598959A959C959E4D
:100350001200856F8C908C928C948C968C988C9AD1
:100360008C9C8C9E85B18C8085B38C8285B58C8469
:1003700085B78C8685B98C8885BB8C8A85BD8C8C2D
:1003800085BF8C8E1200856B83B0858183B2858397
:1003900083B4858583B6858783B8858983BA858B41
:1003A00083BC858D83BE858F85511200010EDAECEA
:1003B00001F01200D894010AD8A40DD0000E826F6B
:1003C000FF0E836F5AEC01F0010E826FFF0E836FF8
:1003D0005AEC01F01200000E826F000E836F5AEC8F
:1003E00001F0010E826F000E836F5AEC01F01200D3
:1003F000866B876B120E826F66EC01F0866F130EB0
:10040000826F66EC01F0876F1200120E826F8651C8
:10041000836F5AEC01F0130E826F8751836F5AEC91
:1004200001F01200949C948EAD6AAE6A6A0EAF6EB3
:10043000240EAC6EAC98AB8E12009EA8FED7AD6EAB
:1004400012009EAAFED7AE5012000D0E1DEC02F057
:100450000A0E1DEC02F01200F9262D0C2D0C2D0CAD
:100460002D0C2D0C2D0C2D0C2D0C2D0C2D0C2D0CC4
:100470002D0C2D0C2D0C2D0C2D0C2D0C2D0C2D0CB4
:100480002D0C2D0C2D0C2D0C2D0C2D0C2D0C2D0CA4
:100490002D0C2D0C2D0C2D0C2D0C2D0C2D0C2D0C94
:1004A0002D0C2D0C2D0C2D0C2D0C2D0C2D0C2D0C84
:1004B0000D0C0A0C540C650C730C740C200C4D0CB8
:1004C000650C730C730C610C670C650C0D0C0A0C3D
:1004D0002D0C2D0C2D0C2D0C2D0C2D0C2D0C2D0C54
:1004E0002D0C2D0C2D0C2D0C2D0C2D0C2D0C2D0C44
:1004F0002D0C2D0C2D0C2D0C2D0C2D0C2D0C2D0C34
:100500002D0C2D0C2D0C2D0C2D0C2D0C2D0C2D0C23
:100510002D0C2D0C2D0C2D0C2D0C2D0C2D0C2D0C13
:100520002D0C2D0C2D0C000C886F88A7A5EF02F068
:10053000080AD8B4A5EF02F000008851090AD8B41F
:10054000A5EF02F00000070E88278851300F1DEC40
:1005500002F01200896F89390F0B94EC02F0895177
:100560000F0B94EC02F012008A6F080E8B6F8096CE
:10057000370E37EC01F08A43D8A0C1EF02F0C4EF88
:1005800002F08096C5EF02F08086370E37EC01F05E
:100590008B2FBBEF02F08086370E37EC01F0120094
:0605A00080869296120015
:020000040030CA
:0100010026D8
:010002000FEE
:010003000EEE
:0100050001F9
:010006008178
:010008000FE8
:01000900C036
:01000A000FE6
:01000B00E014
:01000C000FE4
:00000001FF
