:020000040000FA
:0400000057EF00F0C6
:020004000000FA
:060008008B94949412D0C9
:08001800D8CF01F0E8CF00F0A1
:10002000E0CF02F002C0E0FF00C0E8FF01C0D8FF4F
:100030001000D8CF01F0E8CF00F0E0CF02F09EBE74
:1000400001D02CD08A8696AE12D008B425D008A054
:1000500023D0EA6A840EE96E8251E9268350EF6E5E
:10006000822B969A8251020AD8B4088415D096BE83
:1000700013D008B411D008A20FD08351000A09E0B0
:10008000EA6A880EE96E83078351E926EFCF8CFF79
:1000900003D00892088000D0969A9E9E02C0E0FF8E
:1000A00000C0E8FF01C0D8FF08A4948411007CECD4
:1000B00000F08A98939893848A829392948441EC76
:1000C00002F083EC01F0898A929A899092908A9644
:1000D0009396A0EC01F0E7EC01F0ECEC00F02BECD7
:1000E00001F0F5EC00F001EC01F013EC01F00880F8
:1000F00008B486EC00F0FCD7C26A0F0EC16EBD6A70
:10010000BA6A8A909390110ED56E12008980F29E81
:1001100008940890826B8451020A10E08451030A0B
:1001200012E08451040A1AE08451050A12E0846B3B
:10013000856B866B876B000E836F14D0836B855144
:100140004DEC02F00FD051EC02F0886F010E836F7E
:1001500009D0010E836FD650886F04D0000E836FD4
:100160008551D66E120E8C6E0882F28E9484120027
:100170000892836B886B896B8A6B8B6B088012008B
:10018000076A000EEBEC01F0898616EC02F0010E16
:10019000A5EC01F08984899289940000D4EC01F0E7
:1001A000076E8984898207501200076E000EEBECFF
:1001B00001F0000EA5EC01F016EC02F00750BAECCD
:1001C00001F08984899289960000898689821200CB
:1001D0008984898289861200899292928994929464
:1001E00089969296E8EC00F01200928292849286B0
:1001F000010EEBEC01F0010EA5EC01F0E8EC00F0D3
:1002000012008A989398320E4EEC01F08A8881A4ED
:10021000FED7000012008A98939812008A8881A461
:10022000FED700001200D09E968096829684968813
:1002300095689E9E9D8EF28CF28E8A809382836B4F
:10024000826B086A886B896B8A6B8B6B846B856B9E
:10025000866B876B1200000EF86E060EF76E060EA8
:10026000F66E800EA66E916B926B09000000000086
:10027000F550D5EC00F0913FF8D7922B9251040A3B
:06028000F4E1120012007F
:0A028600806F00000000000000007F
:10029000000000000000802FF7D71200816F640E6D
:1002A00043EC01F0640E43EC01F0640E43EC01F00A
:1002B000640E43EC01F0812F4FEF01F01200899A98
:1002C000400E8FEC01F0000E8FEC01F0000E8FEC71
:1002D00001F0898A1200899A400E8FEC01F08D514D
:1002E0008FEC01F08E518FEC01F0898A1200899A0F
:1002F000410E8FEC01F08D518FEC01F000508FEC2E
:1003000001F0898A12009488949A9496C66AC96A00
:100310009E96C78CC79EC688C698C68A12008F6FE5
:10032000C69E8F51C96E9EA6FED79E96C9501200DA
:100330009E96C950000EC96E9EA6FED7C9501200E7
:100340009698010EA5EC01F01200D894010A09E17B
:1003500095809582958495869588958A958C958EBD
:10036000120095909592959495969598959A959C4E
:10037000959E1200906F8C908C928C948C968C9899
:100380008C9A8C9C8C9E90B18C8090B38C8290B512
:100390008C8490B78C8690B98C8890BB8C8A90BDE9
:1003A0008C8C90BF8C8E1200906B83B0908183B246
:1003B000908383B4908583B6908783B8908983BAFD
:1003C000908B83BC908D83BE908F90511200010E54
:1003D000EBEC01F01200D894010AD8A40DD0000E65
:1003E0008D6FFF0E8E6F6BEC01F0010E8D6FFF0EA7
:1003F0008E6F6BEC01F01200000E8D6F000E8E6F91
:100400006BEC01F0010E8D6F000E8E6F6BEC01F046
:100410001200916B926B120E8D6F77EC01F0916F61
:10042000130E8D6F77EC01F0926F1200120E8D6F2C
:1004300091518E6F6BEC01F0130E8D6F92518E6F98
:100440006BEC01F01200D894010AD8A4D5D7000EA5
:100450008D6FFF0E8E6F6BEC01F0010E8D6FFF0E36
:100460008E6F6BEC01F01200000E8D6F000E8E6F20
:100470006BEC01F0010E8D6FFF0E8E6F6BEC01F0D7
:100480001200949C948EAD6AAE6A810EAF6E240EFB
:10049000AC6EAC98AB88AB8E12009EA8FED7AD6E4A
:1004A00012009EAAFED7AE5012000D0E4DEC02F0C7
:1004B0000A0E4DEC02F01200F9262D0C2D0C2D0C1D
:1004C0002D0C2D0C2D0C2D0C2D0C2D0C2D0C2D0C64
:1004D0002D0C2D0C2D0C2D0C2D0C2D0C2D0C2D0C54
:1004E0002D0C2D0C2D0C2D0C2D0C2D0C2D0C2D0C44
:1004F0002D0C2D0C2D0C2D0C2D0C2D0C2D0C2D0C34
:100500002D0C2D0C2D0C2D0C2D0C2D0C2D0C2D0C23
:100510000D0C0A0C540C650C730C740C200C4D0C57
:10052000650C730C730C610C670C650C0D0C0A0CDC
:100530002D0C2D0C2D0C2D0C2D0C2D0C2D0C2D0CF3
:100540002D0C2D0C2D0C2D0C2D0C2D0C2D0C2D0CE3
:100550002D0C2D0C2D0C2D0C2D0C2D0C2D0C2D0CD3
:100560002D0C2D0C2D0C2D0C2D0C2D0C2D0C2D0CC3
:100570002D0C2D0C2D0C2D0C2D0C2D0C2D0C2D0CB3
:100580002D0C2D0C2D0C000C936F93A7D5EF02F0C2
:10059000080AD8B4D5EF02F000009351090AD8B484
:1005A000D5EF02F00000070E93279351300F4DEC6A
:1005B00002F01200946F94390F0BC4EC02F09451C6
:1005C0000F0BC4EC02F01200956F080E966F809628
:1005D000370E43EC01F09543D8A0F1EF02F0F4EFB1
:1005E00002F08096F5EF02F08086370E43EC01F0C2
:1005F000962FEBEF02F08086370E43EC01F01200ED
:10060000808692961200F3CD3300CD22003E58CD65
:100610002200D301CD1400C301000000000000C976
:10062000DB03CB7FCA1A00C9473E02D300CD1A00B4
:1006300078D300CD1A00DB00C93E03D300CD1A00E9
:100640003E00D300CD1A00DB00CD1A00DB00C9004C
:10065000000000000000000000000000000000009A
:10066000000000000000000000000000000000008A
:10067000000000000000000000000000000000007A
:100680000000000000C900000000000000000000A1
:10069000000000000000000000000000000000005A
:1006A000000000000000000000000000000000004A
:1006B000000000000000000000000000000000003A
:1006C000000000000000000000000000000000002A
:1006D000000000000000000000000000000000001A
:1006E000000000000000000000000000000000000A
:1006F00000000000000000000000000000000000FA
:1007000000000000001100000000000000000000D8
:1007100000000000000000000000000000000000D9
:1007200000000000000000000000000000000000C9
:1007300000000000000000000000000000000000B9
:1007400000000000000000000000000000000000A9
:100750000000000000000000000000000000000099
:100760000000000000000000000000000000000089
:100770000000000000000000000000000000000079
:100780000000000000220000000000000000000047
:100790000000000000000000000000000000000059
:1007A0000000000000000000000000000000000049
:1007B0000000000000000000000000000000000039
:1007C0000000000000000000000000000000000029
:1007D0000000000000000000000000000000000019
:1007E0000000000000000000000000000000000009
:1007F00000000000000000000000000000000000F9
:1008000000000000003300000000000000000000B5
:1008100000000000000000000000000000000000D8
:1008200000000000000000000000000000000000C8
:1008300000000000000000000000000000000000B8
:1008400000000000000000000000000000000000A8
:100850000000000000000000000000000000000098
:100860000000000000000000000000000000000088
:100870000000000000000000000000000000000078
:100880000000000000440000000000000000000024
:100890000000000000000000000000000000000058
:1008A0000000000000000000000000000000000048
:1008B0000000000000000000000000000000000038
:1008C0000000000000000000000000000000000028
:1008D0000000000000000000000000000000000018
:1008E0000000000000000000000000000000000008
:1008F00000000000000000000000000000000000F8
:100900000000000000550000000000000000000092
:1009100000000000000000000000000000000000D7
:1009200000000000000000000000000000000000C7
:1009300000000000000000000000000000000000B7
:1009400000000000000000000000000000000000A7
:100950000000000000000000000000000000000097
:100960000000000000000000000000000000000087
:100970000000000000000000000000000000000077
:100980000000000000660000000000000000000001
:100990000000000000000000000000000000000057
:1009A0000000000000000000000000000000000047
:1009B0000000000000000000000000000000000037
:1009C0000000000000000000000000000000000027
:1009D0000000000000000000000000000000000017
:1009E0000000000000000000000000000000000007
:1009F00000000000000000000000000000000000F7
:060A000000000000007779
:020000040030CA
:0100010026D8
:010002000FEE
:010003000EEE
:0100050001F9
:010006008178
:010008000FE8
:01000900C036
:01000A000FE6
:01000B00E014
:01000C000FE4
:00000001FF
